:020000040800F2
:1000000000000520292400082F10000831100008E6
:1000100033100008351000083710000800000000F9
:10002000000000000000000000000000391000087F
:100030003B100008000000003D1000083F100008C1
:10004000792400087924000879240008792400081C
:10005000792400087924000879240008792400080C
:1000600079240008792400087924000879240008FC
:1000700079240008792400087924000879240008EC
:1000800079240008792400087924000879240008DC
:1000900079240008792400087924000879240008CC
:1000A00079240008792400087924000879240008BC
:1000B00079240008792400087924000879240008AC
:1000C000792400087924000879240008792400089C
:1000D000792400087924000879240008792400088C
:1000E000792400087924000879240008792400087C
:1000F000792400087924000879240008792400086C
:10010000792400087924000879240008792400085B
:10011000792400087924000879240008792400084B
:10012000792400087924000879240008491000087F
:10013000792400087924000879240008792400082B
:10014000792400087924000879240008792400081B
:10015000792400087924000879240008792400080B
:1001600079240008792400087924000879240008FB
:100170007924000879240008792400080000000090
:1001800079240008792400087924000879240008DB
:1001900079240008792400087924000879240008CB
:1001A00079240008792400087924000879240008BB
:0801B0007924000800000000A2
:1001B80010B5054C237833B9044B13B10448AFF399
:1001C80000800123237010BD000200200000000001
:1001D8000C3F000808B5034B1BB103490348AFF3B4
:1001E800008008BD00000000040200200C3F000849
:1001F800034613F8012B002AFBD1181A013870475F
:1002080081F0004102E000BF83F0004330B54FEABF
:1002180041044FEA430594EA050F08BF90EA020F2C
:100228001FBF54EA000C55EA020C7FEA645C7FEABF
:10023800655C00F0E2804FEA5454D4EB5555B8BFE2
:100248006D420CDD2C4480EA020281EA030382EA53
:10025800000083EA010180EA020281EA0303362DE5
:1002680088BF30BD11F0004F4FEA01314FF4801CB8
:100278004CEA113102D0404261EB410113F0004FCA
:100288004FEA03334CEA133302D0524263EB430381
:1002980094EA050F00F0A780A4F10104D5F1200E1F
:1002A8000DDB02FA0EFC22FA05F2801841F100017A
:1002B80003FA0EF2801843FA05F359410EE0A5F14E
:1002C80020050EF1200E012A03FA0EFC28BF4CF07F
:1002D800020C43FA05F3C01851EBE37101F0004535
:1002E80007D54FF0000EDCF1000C7EEB00006EEB42
:1002F8000101B1F5801F1BD3B1F5001F0CD34908CC
:100308005FEA30004FEA3C0C04F101044FEA445222
:1003180012F5800F80F09A80BCF1004F08BF5FEAA9
:10032800500C50F1000041EB045141EA050130BD89
:100338005FEA4C0C404141EB010111F4801FA4F12C
:100348000104E9D191F0000F04BF01460020B1FA81
:1003580081F308BF2033A3F10B03B3F120020CDAB9
:100368000C3208DD02F1140CC2F10C0201FA0CF097
:1003780021FA02F10CE002F11402D8BFC2F1200CFC
:1003880001FA02F120FA0CFCDCBF41EA0C019040B2
:10039800E41AA2BF01EB0451294330BD6FEA0404FB
:1003A8001F3C1CDA0C340EDC04F11404C4F12002E6
:1003B80020FA04F001FA02F340EA030021FA04F3F8
:1003C80045EA030130BDC4F10C04C4F1200220FA4F
:1003D80002F001FA04F340EA0300294630BD21FA8D
:1003E80004F0294630BD94F0000F83F4801306BF53
:1003F80081F480110134013D4EE77FEA645C18BF47
:100408007FEA655C29D094EA050F08BF90EA020FDD
:1004180005D054EA000C04BF1946104630BD91EAD5
:10042800030F1EBF0021002030BD5FEA545C05D1D8
:100438004000494128BF41F0004130BD14F5800417
:100448003CBF01F5801130BD01F0004545F0FE418B
:1004580041F470014FF0000030BD7FEA645C1ABFC0
:10046800194610467FEA655C1CBF0B46024650EAF7
:10047800013406BF52EA033591EA030F41F4002123
:1004880030BD00BF90F0000F04BF0021704730B5A9
:100498004FF4806404F132044FF000054FF000017E
:1004A80050E700BF90F0000F04BF0021704730B53F
:1004B8004FF4806404F1320410F0004548BF404214
:1004C8004FF000013EE700BF42004FEAE2014FEA69
:1004D80031014FEA02701FBF12F07F4393F07F4F44
:1004E80081F06051704732F07F4208BF704793F047
:1004F8007F4F04BF41F40021704730B54FF460745A
:1005080001F0004521F000411CE700BF50EA01025C
:1005180008BF704730B54FF000050AE050EA010205
:1005280008BF704730B511F0004502D5404261EB75
:1005380041014FF4806404F132045FEA915C3FF4B6
:10054800D8AE4FF003025FEADC0C18BF03325FEA53
:10055800DC0C18BF033202EBDC02C2F1200300FA04
:1005680003FC20FA02F001FA03FE40EA0E0021FA29
:1005780002F11444BDE600BF70B54FF0FF0C4CF417
:10058800E06C1CEA11541DBF1CEA135594EA0C0FC9
:1005980095EA0C0F00F0DEF82C4481EA030621EA04
:1005A8004C5123EA4C5350EA013518BF52EA03353F
:1005B80041F4801143F4801338D0A0FB02CE4FF0F1
:1005C8000005E1FB02E506F00042E0FB03E54FF021
:1005D8000006E1FB03569CF0000F18BF4EF0010E19
:1005E800A4F1FF04B6F5007F64F5407404D25FEA15
:1005F8004E0E6D4146EB060642EAC62141EA5551C8
:100608004FEAC52040EA5E504FEACE2EB4F1FD0C09
:1006180088BFBCF5E06F1ED8BEF1004F08BF5FEA87
:10062800500E50F1000041EB045170BD06F0004639
:1006380046EA010140EA020081EA0301B4EB5C04E6
:10064800C2BFD4EB0C0541EA045170BD41F48011DE
:100658004FF0000E013C00F3AB8014F1360FDEBF03
:10066800002001F0004170BDC4F10004203C35DADF
:100678000C341BDC04F11404C4F1200500FA05F362
:1006880020FA04F001FA05F240EA020001F0004203
:1006980021F0004110EBD37021FA04F642EB060179
:1006A8005EEA430E08BF20EAD37070BDC4F10C04A3
:1006B800C4F1200500FA04F320FA05F001FA04F267
:1006C80040EA020001F0004110EBD37041F1000153
:1006D8005EEA430E08BF20EAD37070BDC4F120055E
:1006E80000FA05F24EEA020E20FA04F301FA05F2C6
:1006F80043EA020321FA04F001F0004121FA04F26E
:1007080020EA020000EBD3705EEA430E08BF20EA3D
:10071800D37070BD94F0000F0FD101F00046400077
:1007280041EB010111F4801F08BF013CF7D041EAF9
:10073800060195F0000F18BF704703F000465200FD
:1007480043EB030313F4801F08BF013DF7D043EACE
:100758000603704794EA0C0F0CEA135518BF95EA84
:100768000C0F0CD050EA410618BF52EA4306D1D10B
:1007780081EA030101F000414FF0000070BD50EA2A
:10078800410606BF1046194652EA430619D094EAB4
:100798000C0F02D150EA013613D195EA0C0F05D19E
:1007A80052EA03361CBF104619460AD181EA0301F2
:1007B80001F0004141F0FE4141F470014FF00000AA
:1007C80070BD41F0FE4141F4780170BD70B54FF045
:1007D800FF0C4CF4E06C1CEA11541DBF1CEA1355C5
:1007E80094EA0C0F95EA0C0F00F0A7F8A4EB0504A7
:1007F80081EA030E52EA03354FEA013100F088809E
:100808004FEA03334FF0805545EA131343EA126366
:100818004FEA022245EA111545EA10654FEA00261B
:100828000EF000419D4208BF964244F1FD0404F5D4
:10083800407402D25B084FEA3202B61A65EB030530
:100848005B084FEA32024FF480104FF4002CB6EBED
:10085800020E75EB030E22BFB61A754640EA0C006D
:100868005B084FEA3202B6EB020E75EB030E22BFAD
:10087800B61A754640EA5C005B084FEA3202B6EBEE
:10088800020E75EB030E22BFB61A754640EA9C00AD
:100898005B084FEA3202B6EB020E75EB030E22BF7D
:1008A800B61A754640EADC0055EA060E18D04FEA3B
:1008B800051545EA16754FEA06164FEAC30343EADB
:1008C80052734FEAC2025FEA1C1CC0D111F4801FA8
:1008D8000BD141EA00014FF000004FF0004CB6E7A1
:1008E80011F4801F04BF01430020B4F1FD0C88BF40
:1008F800BCF5E06F3FF6AFAEB5EB030C04BFB6EB4B
:10090800020C5FEA500C50F1000041EB045170BD3D
:100918000EF0004E4EEA113114EB5C04C2BFD4EB6A
:100928000C0541EA045170BD41F480114FF0000EEE
:10093800013C90E645EA060E8DE60CEA135594EA6A
:100948000C0F08BF95EA0C0F3FF43BAF94EA0C0F6D
:100958000AD150EA01347FF434AF95EA0C0F7FF4E2
:1009680025AF104619462CE795EA0C0F06D152EA36
:1009780003353FF4FDAE1046194622E750EA41061A
:1009880018BF52EA43067FF4C5AE50EA41047FF42B
:100998000DAF52EA43057FF4EBAE12E74FF0FF3C90
:1009A80006E000BF4FF0010C02E000BF4FF0010C61
:1009B8004DF804CD4FEA410C7FEA6C5C4FEA430CDA
:1009C80018BF7FEA6C5C1BD001B050EA410C0CBF29
:1009D80052EA430C91EA030F02BF90EA020F00208B
:1009E800704710F1000F91EA030F58BF994208BFF2
:1009F80090422CBFD8176FEAE37040F001007047AF
:100A08004FEA410C7FEA6C5C02D150EA013C07D105
:100A18004FEA430C7FEA6C5CD6D152EA033CD3D050
:100A28005DF8040B704700BF8446104662468C464A
:100A38001946634600E000BF01B5FFF7B7FF00287D
:100A480048BF10F1000F01BD4DF808EDFFF7F4FFA6
:100A58000CBF012000205DF808FB00BF4DF808ED31
:100A6800FFF7EAFF34BF012000205DF808FB00BF54
:100A78004DF808EDFFF7E0FF94BF012000205DF876
:100A880008FB00BF4DF808EDFFF7CEFF94BF01202B
:100A980000205DF808FB00BF4DF808EDFFF7C4FF24
:100AA80034BF012000205DF808FB00BF4FEA410C6D
:100AB8007FEA6C5C02D150EA013C0AD14FEA430C50
:100AC8007FEA6C5C02D152EA033C02D14FF000008D
:100AD80070474FF0010070474FEA410212F50012CB
:100AE80015D211D56FF47873B3EB625212D94FEA6D
:100AF800C12343F0004343EA505311F0004F23FA57
:100B080002F018BF404270474FF00000704750EAAB
:100B1800013005D111F0004008BF6FF00040704768
:100B28004FF00000704700BF53B94AB9002908BF09
:100B380000281CBF4FF0FF314FF0FF3000F074B9B0
:100B4800ADF1080C6DE904CE00F006F8DDF804E01C
:100B5800DDE9022304B070472DE9F047089E0446FA
:100B68008846002B40F085808A42154648D9B2FA5B
:100B780082F24AB1C2F1200701FA02F320FA07F71C
:100B8800954047EA030894404FEA154E230CB8FBFA
:100B9800FEF71FFA85FC0EFB178843EA084307FB9C
:100BA8000CF1994209D9EB1807F1FF3080F0E38086
:100BB800994240F2E080023F2B445B1AA4B2B3FB97
:100BC800FEF00EFB103344EA034400FB0CFCA44582
:100BD80009D92C1900F1FF3380F0CB80A44540F2ED
:100BE800C88002382C4440EA0740A4EB0C040027D4
:100BF8001EB1D4400023C6E900433946BDE8F0875A
:100C0800002A53D0B2FA82F2002A40F0B680491B7B
:100C18004FEA154E1FFA85F80127B1FBFEFC230C9D
:100C28000EFB1C1143EA014308FB0CF1994207D95A
:100C3800EB180CF1FF3002D2994200F2EC808446A6
:100C4800591AA3B2B1FBFEF00EFB101443EA044498
:100C580008FB00F8A04507D92C1900F1FF3302D290
:100C6800A04500F2DC801846A4EB080440EA0C40DA
:100C7800BEE78B4208D9002E78D00027C6E90001CC
:100C880038463946BDE8F087B3FA83F77FB98B4217
:100C980002D3824200F2BD80841A61EB0303012073
:100CA8009846002EA9D0C6E90048A6E7FFDEC7F19E
:100CB8002005BB4022FA05FC4CEA030C01FA07F4B4
:100CC80020FA05F821FA05F34FEA1C4E48EA040415
:100CD800B3FBFEF9210C0EFB19331FFA8CF841EA1D
:100CE800034309FB08FA9A4502FA07F200FA07F1EA
:100CF8000BD91CEB030309F1FF3080F088809A457B
:100D080040F28580A9F102096344A3EB0A03A4B267
:100D1800B3FBFEF00EFB103344EA034400FB08F873
:100D2800A04508D91CEB040400F1FF336BD2A045A1
:100D380069D90238644440EA0940A4EB0804A0FBDE
:100D480002894C45C6464B4654D351D0002E69D033
:100D5800B1EB0E0264EB030404FA05F522FA07F37B
:100D6800FC401D43C6E90054002746E73746304695
:100D780043E7184637E707461FE7C2F1200320FA82
:100D880003F7954001FA02F021FA03F34FEA154EF2
:100D98003843010CB3FBFEF71FFA85F80EFB173337
:100DA80041EA034107FB08F38B4204FA02F407D92E
:100DB800691807F1FF3C28D28B4226D9023F294403
:100DC800CB1A81B2B3FBFEF00EFB103341EA0341AC
:100DD80000FB08F38B4207D9691800F1FF3C10D2D9
:100DE8008B420ED902382944C91A40EA074714E74A
:100DF8004145ABD2B8EB020E69EB0C020138134641
:100E0800A4E76046F0E7184695E76746D8E78146C5
:100E18007BE7384645E7ACF1020C2B4410E7023873
:100E28002C4421E73746E8E6704700BF70B588B024
:100E3800064600250095294B5A6C42F400725A6404
:100E48005A6C02F400720092009A01951A6B42F0F3
:100E580001021A631A6B02F001020192019A0295CB
:100E68001A6B42F480021A631B6B03F4800302932B
:100E7800029B2023039303230493059503A9184891
:100E880000F07CFB174C184B23604FF00073636035
:100E9800A560E5604FF4806323614FF4805363617C
:100EA8004FF48043A3614FF48073E3614FF4003340
:100EB800236265620123A362E5622563204600F090
:100EC8003BFDB463A6632A4629463B2000F05EFC3E
:100ED8003B2000F08FFC08B070BD00BF0038024016
:100EE800000002401C0200205864024000B595B082
:100EF80000210091234B1A6C42F080521A641B6C3B
:100F080003F080530093009B01911F4B1A6842F431
:100F180040421A601B6803F440430193019B01237C
:100F280002934FF480330393022308934FF4800213
:100F3800099208220A924FF4B4720B920C93072379
:100F48000D9306230E9302A800F0DCFF00B1FEE724
:100F580000F098FF00B1FEE70F230F9302231093D0
:100F6800002311934FF4A05312934FF4805313931B
:100F780005210FA800F0D8FE00B1FEE715B05DF816
:100F880004FB00BF003802400070004008B5022092
:100F980001F034FAFEE7000000B585B001F0A4F9CD
:100FA800FFF7A4FF002001F0CBF9022001F0C8F9F7
:100FB8001748184B03604FF4803343600023836065
:100FC80003610122826103624362C3628362C36078
:100FD800C2610263436100F0F9F808B1FFF7D6FF78
:100FE8000523009301230193002302930393694689
:100FF800074800F0F9F908B1FFF7C8FF01220649D0
:10100800034800F00DF900B9FEE7FFF7BFFF00BF86
:101018008C020020002101407C02002008B500203D
:1010280001F0ECF908BD7047FEE7FEE7FEE7FEE7D2
:1010380070477047704708B501F070F908BD0000A7
:1010480008B5024B986B00F017FD08BD8C02002014
:101058000F49D1F8883043F47003C1F888300D4B3C
:101068001A6842F001021A60002098601A6822F09B
:10107800847222F480321A60074A5A601A6822F48D
:1010880080221A60D8604FF000638B60704700BF01
:1010980000ED00E00038024010300024494B5A6847
:1010A80022F440325A605A6841680A435A6002681A
:1010B800536823F48073536002685368016943EAF4
:1010C800012353600268536823F040735360026839
:1010D800536881680B4353600268936823F4006384
:1010E800936002689368C1680B439360826A364BC9
:1010F8009A4255D00268936823F07063936002683F
:101108009368816A0B4393600268936823F04053A5
:10111800936002689368C16A0B439360026893689E
:1011280023F00203936002689368816943EA4103EC
:101138009360036A002B3ED00268536843F400634F
:1011480053600268536823F46043536001684B6836
:10115800426A013A43EA42334B600268D36A23F495
:101168007003D3620168CB6AC269013A43EA025349
:10117800CB620268936823F40073936002689368F3
:10118800016B43EA412393600268936823F4806308
:10119800936002689368416943EA812393607047CA
:1011A8000268936823F0706393600268936823F081
:1011B80040539360B2E70268536823F400635360B6
:1011C800CBE700BF002301400100000F30B310B58A
:1011D8000446036C43B1236C13F0100F0AD00120AE
:1011E800002384F83C3010BD436480F83C30FFF79E
:1011F8001DFEF0E7236C23F4885323F0020343F029
:10120800020323642046FFF749FF00206064236C33
:1012180023F0030343F001032364E1E7012070474F
:1012280030B583B00023019390F83C30012B7FD078
:10123800012380F83C300468A36813F0010F12D131
:10124800A36843F00103A3603E4B1C683E4BA3FB1D
:101258000434A40C04EB44040194019C1CB1019CCB
:10126800013C0194F9E703689C6814F0010F61D010
:10127800046C24F4E06424F0010444F480740464ED
:101288005B6813F4806F05D0036C23F4405343F478
:1012980080530364036C13F4805F36D0436C23F0EF
:1012A8000603436413460446002280F83C20826B00
:1012B8002648D063A26B26481064A26B2548D064E8
:1012C80022686FF0220010602568686840F080602E
:1012D80068602568A86840F48070A86020680A469D
:1012E80000F14C01A06B00F08DFB1B4B5B6813F009
:1012F8001F0F0DD123689A6812F0405F1DD19A68BC
:1013080042F080429A60002015E000234364C9E758
:101318002368124A934201D000200CE09A6812F028
:10132800405F0CD19A6842F080429A60002002E047
:10133800022000E0002003B030BD0020FBE70020C1
:10134800F9E700BF0000002083DE1B436913000893
:10135800CD130008D91300080023014000200140E4
:1013680008B5836B1A6C12F0500F26D11A6C42F430
:1013780000721A641A68916811F0405F19D199696E
:10138800B9B9D16A11F4700F03D0916811F4806F64
:101398000FD1516821F0200151601A6C22F480723B
:1013A8001A641A6C12F4805F03D11A6C42F00102BD
:1013B8001A641846FFF732FE08BD9B6BDB6C984732
:1013C800FAE7704708B5806BFFF7FBFF08BD704769
:1013D80008B5806B40230364436C43F00403436403
:1013E800FFF7F5FF08BD000030B482B00023019379
:1013F80090F83C30012B00F0B480012380F83C3099
:101408000B68092B3ED90568EA689BB203EB4303D6
:101418001E3B072404FA03F322EA0303EB60056882
:10142800EA688C680B8803EB43031E3B04FA03F35A
:101438001343EB604B68062B3AD805686A6B03EBDD
:101448008303053B1F2404FA03F322EA03036B63B7
:1014580005686A6B4B6803EB8303053B0C8804FA49
:1014680003F313436B6302683F4B9A4250D0026800
:101478003D4B9A4255D0002380F83C30184602B0C4
:1014880030BC704705682A699BB203EB4303072405
:1014980004FA03F322EA03032B6105682A698C68BE
:1014A8000B8803EB430304FA03F313432B61C1E7EF
:1014B8000C2B16D805682A6B03EB8303233B1F24E8
:1014C80004FA03F322EA03032B6305682A6B4B68CB
:1014D80003EB8303233B0C8804FA03F313432B63C6
:1014E800C1E70568EA6A03EB8303413B1F2404FA5A
:1014F80003F322EA0303EB620568EA6A4B6803EB2D
:101508008303413B0C8804FA03F31343EB62AAE715
:101518000B68122BABD1154A536843F48003536010
:10152800A5E70B68124A934201D0112BA3D10F4AA9
:10153800536843F4000353600A680D4B9A429AD1EA
:101548000C4B1B680C4AA2FB03239B0C03EB830385
:101558005A000192019B002B8DD0019B013B019306
:10156800F8E702208BE700BF00200140002301407C
:10157800120000100000002083DE1B4300230F2B05
:1015880000F2E280F0B482B039E0092200E00022E3
:10159800B2403A4302356D4E46F825206C4A15682C
:1015A800E24302EA05064F6817F4803F01D044EA97
:1015B8000506674D2E606D6802EA05064F6817F448
:1015C800003F01D044EA0506614D6E60AD6802EA4D
:1015D80005064F6817F4801F01D044EA05065C4DE4
:1015E800AE60ED682A404E6816F4001F01D044EA48
:1015F8000502574CE26001330F2B00F2A280012252
:101608009A400C681440A242F5D14D68022D01D0D1
:10161800122D10D1DE08083650F826C003F0070551
:10162800AF000F25BD402CEA050C0D69BD4045EA09
:101638000C0540F8265006685F000325BD40ED43C1
:1016480005EA060C4E6806F00306BE4046EA0C069C
:1016580006604E6806F1FF3CBCF1010F03D9112E5C
:1016680001D0122E10D1866805EA060CCE68BE405D
:1016780046EA0C068660466826EA02024E68C6F309
:1016880000169E4016434660C26815408A68BA40F4
:101698002A43C2604A6812F0805FACD000220192EF
:1016A8002C4A556C45F480455564526C02F48042CE
:1016B8000192019A9D08AE1C244A52F8267003F044
:1016C800030296000F22B24027EA0207224A9042FC
:1016D8003FF45DAF02F58062904222D002F580624D
:1016E800904220D002F5806290421ED002F58062BE
:1016F80090421CD002F5806290421AD002F58062B6
:10170800904218D002F58062904216D002F58062AD
:10171800904214D002F5806290423FF436AF0A221C
:1017280036E7012234E7022232E7032230E70422B7
:101738002EE705222CE706222AE7072228E70822B7
:1017480026E702B0F0BC7047704700BF0038014080
:10175800003C014000380240000002400AB18161AB
:101768007047090481617047074AD36823F4E0632E
:101778001B041B0C000200F4E060184340F0BF603B
:1017880040F40030D060704700ED00E030B4174BF3
:10179800DB68C3F30223C3F10704042C28BF042425
:1017A8001D1D062D01D9033B00E000234FF0FF3536
:1017B80005FA04F421EA0401994005FA03F322EA40
:1017C80003031943002809DB0901C9B200F160408D
:1017D80000F5614080F8001330BC704700F00F003E
:1017E8000901C9B2024B1954F6E700BF00ED00E049
:1017F80014ED00E000F01F02400901239340024A63
:1018080042F82030704700BF00E100E00138B0F135
:10181800807F0AD2064B5860064AF02182F82310CE
:101828000020986007221A6070470120704700BFA7
:1018380010E000E000ED00E030B405682C6824F406
:1018480080242C60046863608368402B05D003689B
:1018580099600368DA6030BC704703689A6003686F
:10186800D960F8E710B40368D9B210390C4AA2FB62
:10187800014212090B4CA25CC2655F2909D923F405
:101888007F7323F0030304338365806D5DF8044B95
:10189800704723F47F7323F003038365F5E700BFE4
:1018A800ABAAAAAA383F0008836A826992B9012BB9
:1018B8000AD01BB1022B01D000207047C36A13F075
:1018C800807F28D100207047C36AB3F1C07F24D03D
:1018D80000207047B2F5005F09D0022B25D9032BF1
:1018E80025D1C36A13F0807F23D100207047032BD2
:1018F80003D8DFE803F01404140A00207047C36A11
:1019080013F0807F0DD100207047C36AB3F1C07F08
:1019180009D000207047012070470120704701203E
:101928007047012070470120704701207047002050
:10193800704701207047000070B5044600F0FAFCBB
:10194800002C5BD00546002384F83430022384F849
:1019580035302268136823F00103136023681A687E
:1019680012F0010F0AD000F0E5FC401B0528F5D95C
:1019780020236365032084F8350070BD1A68204869
:1019880010406168A2680A43E1680A4321690A4372
:1019980061690A43A1690A43E1690A43216A0A4362
:1019A8000243616A04291ED01A602668756925F009
:1019B8000705636A1D43042B07D1A36A1D43E36A25
:1019C8001BB12046FFF770FF90B975612046FFF7FD
:1019D80049FFE26D3F239340836000206065012347
:1019E80084F83530C9E7E16A206B01430A43DBE735
:1019F80040236365012084F83500BEE70120BCE779
:101A08003F8010F038B5856D90F83440012C31D006
:101A1800012480F8344090F83540E4B2012C04D019
:101A2800002380F83430022038BD0446022084F8B0
:101A38003500002060652046FFF7FEFEE26D3F237B
:101A48009340AB602268136843F016031360226862
:101A5800536943F080035361236C23B122681368F0
:101A680043F0080313602268136843F0010313600E
:101A78000020D9E70220D7E7F0B583B00446002359
:101A88000193724B1D68724BA3FB0535AD0A876D38
:101A98003E68C26D08239340334210D003681A6829
:101AA80012F0040F0BD01A6822F004021A60C26DFB
:101AB80008239340BB60436D43F001034365E26D27
:101AC80001239340334209D02268526912F0800FF3
:101AD80004D0BB60636D43F002036365E26D0423C9
:101AE8009340334209D02268126812F0020F04D0E2
:101AF800BB60636D43F004036365E26D102393409C
:101B0800334224D02268126812F0080F1FD0BB603D
:101B180023681A6812F4802F0DD01B6813F4002F65
:101B280004D1236C9BB12046984710E0A36C73B195
:101B3800204698470BE01A6812F4807F03D11A6890
:101B480022F008021A60236C0BB120469847E26D18
:101B580020239340334255D02268126812F0100FA8
:101B680050D0BB6094F83530DBB2052B0ED023681B
:101B78001A6812F4802F33D01B6813F4002F2AD16F
:101B8800636C002B3ED0204698473BE022681368E0
:101B980023F0160313602268536923F0800353610E
:101BA800236CA3B12268136823F008031360E26D65
:101BB8003F239340BB60002384F83430012384F82A
:101BC8003530236D002B3FD0204698473CE0A36C6E
:101BD800002BE7D1EBE7E36BA3B12046984711E070
:101BE8001A6812F4807F09D11A6822F010021A606C
:101BF800002384F83430012384F83530E36B0BB1CB
:101C080020469847636DFBB1636D13F0010F17D041
:101C1800052384F835302268136823F00103136024
:101C2800019B01330193AB4204D823681B6813F06E
:101C3800010FF5D1002384F83430012384F83530BE
:101C4800E36C0BB12046984703B0F0BD00000020BC
:101C5800B5814E1B314B9B6803F00C03042B58D005
:101C6800082B58D170B52D4B5A6802F03F025B68BB
:101C780013F4800F2AD0294B5868C0F38810054602
:101C8800002643011B1A66EB0604A10141EA936191
:101C98009801C01A61EB0401CB0043EA5073C400F9
:101CA8001946601946EB01014B0243EAD05344023E
:101CB800204619463346FEF737FF184B5B68C3F3D7
:101CC800014301335B00B0FBF3F070BD134B586860
:101CD800C0F388100546002643011B1A66EB06046C
:101CE800A10141EA93619801C01A61EB0401CB009C
:101CF80043EA5073C4001946601946EB01018B0290
:101D080043EA90538402204619463346FEF70CFFF7
:101D1800D3E7034870470348704700BF00380240C4
:101D280000127A000024F400002800F09A8070B5B0
:101D38000446504B1B6803F00F038B4208D2CBB20A
:101D48004C4A1370136803F00F038B4240F08B80EA
:101D5800236813F0020F17D013F0040F04D0464A7B
:101D6800936843F4E0539360236813F0080F04D09A
:101D7800414A936843F4604393603F4A936823F071
:101D8800F003A068034393600D46236813F0010F26
:101D980032D06368012B21D09A1E012A25D9364AF0
:101DA800126812F0020F60D033498A6822F00302E9
:101DB80013438B6000F0BEFA06462F4B9B6803F076
:101DC8000C036268B3EB820F16D000F0B3FA801BE5
:101DD80041F288339842F0D9032041E0264A12683C
:101DE80012F4003FE0D101203AE0234A126812F0D1
:101DF800007FD9D1012033E01E4B1B6803F00F038D
:101E0800AB4207D9EAB21B4B1A701B6803F00F03E9
:101E1800AB422CD1236813F0040F06D0164A9368FE
:101E280023F4E053E1680B439360236813F0080F31
:101E380007D0114A936823F46043216943EAC10338
:101E48009360FFF707FF0C4B9B68C3F303130B4A20
:101E5800D35CD8400A4B18600F2000F01FFA00200E
:101E680070BD012070470120FAE70120F8E7012042
:101E7800F6E700BF003C024000380240283F000857
:101E88000000002010B582B000230193194B1A6C92
:101E980042F080521A641B6C03F080530193019B3B
:101EA800154B01221A6000F045FA0446134B5B6893
:101EB80013F4803F08D100F03DFA001BB0F57A7F9B
:101EC800F4D9032002B010BD0D4B01221A6000F0B6
:101ED80031FA0446094B5B6813F4003F07D100F060
:101EE80029FA001BB0F57A7FF4D90320EAE700202D
:101EF800E8E700BF0038024040000E420070004092
:101F080044000E4270B582B00446036813F0010F16
:101F18003BD0A74B9B6803F00C03042B2CD0A44B9D
:101F28009B6803F00C03082B21D06368B3F5803F4E
:101F38004FD0B3F5A02F52D09D4B1A6822F48032AF
:101F48001A601A6822F480221A606368002B50D045
:101F580000F0F0F90546964B1B6813F4003F14D1C6
:101F680000F0E8F9401B6428F5D903208CE1904B78
:101F78005B6813F4800FD8D08D4B1B6813F4003FB7
:101F880003D06368002B00F07A81236813F0020FF6
:101F980054D0874B9B6813F00C0F3ED0844B9B6842
:101FA80003F00C03082B33D0E368002B67D0814B78
:101FB80001221A6000F0BEF905467D4B1B6813F03C
:101FC800020F53D100F0B6F9401B0228F5D90320BF
:101FD8005AE1774A136843F480331360B5E7744BCA
:101FE8001A6842F480221A601A6842F480321A6031
:101FF800ABE700F09FF905466D4B1B6813F4003FF3
:10200800C3D000F097F9401B6428F5D903203BE1C1
:10201800674B5B6813F4800FC6D1654B1B6813F0E0
:10202800020F03D0E368012B40F02B81604A13684C
:1020380023F0F803216943EAC1031360236813F00E
:10204800080F40D0636963B35B4B01221A6000F04C
:1020580071F90546564B5B6F13F0020F33D100F050
:1020680069F9401B0228F5D903200DE1504A13688D
:1020780023F0F803216943EAC1031360DEE74D4BFF
:1020880000221A6000F056F90546494B1B6813F008
:10209800020FD3D000F04EF9401B0228F5D90320D7
:1020A800F2E0454B00221A6000F044F90546404B27
:1020B8005B6F13F0020F06D000F03CF9401B0228BA
:1020C800F5D90320E0E0236813F0040F79D0384BEA
:1020D8001B6C13F0805F33D100230193344B1A6CCF
:1020E80042F080521A641B6C03F080530193019BE9
:1020F8000125324B1B6813F4807F23D0A368012B82
:1021080034D0052B38D02A4B1A6F22F001021A67F7
:102118001A6F22F004021A67A368002B36D000F069
:1021280009F90646224B1B6F13F0020F48D100F045
:1021380001F9801B41F288339842F3D90320A3E0C8
:102148000025D6E71D4A136843F48073136000F036
:10215800F1F80646194B1B6813F4807FCED100F0C6
:10216800E9F8801B0228F5D903208DE0104A136F87
:1021780043F001031367CFE70D4B1A6F42F00402D7
:102188001A671A6F42F001021A67C5E700F0D2F821
:102198000646074B1B6F13F0020F11D000F0CAF868
:1021A800801B41F288339842F3D903206CE000BFCA
:1021B8000038024000004742800E4742007000404D
:1021C800E5B9A369002B5ED0314A926802F00C028F
:1021D800082A5BD0022B17D02E4B00221A6000F081
:1021E800A9F804462A4B1B6813F0007F45D000F07D
:1021F800A1F8001B0228F5D9032045E0244A136CF6
:1022080023F080531364DCE7224B00221A6000F0AD
:1022180091F805461E4B1B6813F0007F06D000F0AE
:1022280089F8401B0228F5D903202DE0E369226ACA
:102238001343626A43EA8213A26A5208013A43EAE4
:102248000243E26A43EA0263226B43EA0273104ADA
:102258005360104B01221A6000F06CF804460C4BD6
:102268001B6813F0007F06D100F064F8001B0228F9
:10227800F5D9032008E0002006E0002004E0012052
:1022880002E0012000E0002002B070BD0120FBE761
:1022980000380240600047427047000010B504460D
:1022A8000E4B18784FF47A73B3FBF0F30C4A1068AE
:1022B800B0FBF3F0FFF7AAFA68B90F2C01D9012097
:1022C8000AE0002221464FF0FF30FFF75FFA054B86
:1022D8001C60002000E0012010BD00BF04000020A9
:1022E800000000200800002008B50B4B1A6842F4D3
:1022F80000721A601A6842F480621A601A6842F41E
:1023080080721A600320FFF72FFA0F20FFF7C6FF2D
:10231800FFF7C2FF002008BD003C0240034A1168D5
:10232800034B1B780B441360704700BFD402002096
:1023380004000020014B1868704700BFD402002039
:10234800032854D830B58BB0294B53F82030059367
:102358000123069307930323089303280FD8DFE884
:1023680000F0021F2C3900230193224B1A6B42F014
:1023780040021A631B6B03F040030193019B044660
:102388001D4D05A955F82000FFF7F8F80122184B54
:1023980033F8241055F82400FFF7E0F90BB030BDEE
:1023A80000230293134B1A6B42F008021A631B6B4B
:1023B80003F008030293029BE1E7002303930D4B0C
:1023C8001A6B42F008021A631B6B03F008030393AD
:1023D800039BD4E700230493064B1A6B42F48062F4
:1023E8001A631B6B03F480630493049BC7E770476D
:1023F8000C000020003802401C000020032800D9EF
:10240800704708B50022044B33F82010034B53F8EB
:102418002000FFF7A3F908BD0C0000201C000020D5
:10242800DFF834D0002103E00C4B5B5843500431F3
:102438000B480C4B42189A42F6D30B4A02E0002391
:1024480042F8043B094B9A42F9D3FEF701FE00F02B
:1024580011F8FEF7A1FD704700000520784100083B
:10246800000000200002002000020020E8020020F6
:10247800FEE7000070B50D4D0D4C641BA41000263E
:10248800A64209D10B4D0C4C01F03CFD641BA41075
:102498000026A64205D170BD55F8043B9847013681
:1024A800EEE755F8043B98470136F2E7704100081B
:1024B8007041000870410008744100080244034656
:1024C800934200D1704703F8011BF9E72DE9FF4754
:1024D80055EC104B002D0E4691461946DDF830A0FC
:1024E8004FF0000203DA05F100431D462D220D9F2F
:1024F8000A7027F02007462F04D0452F00D1013657
:10250800022100E0032103AB019302AB00933246A2
:10251800534645EC104B00F097FB472F804602D1FD
:1025280019F0010F22D0462F08EB060911D198F8AF
:102538000030302B0AD10022002320462946FEF71E
:1025480083FA18B9C6F10106CAF80060DAF8003053
:1025580099440022002320462946FEF775FA08B15F
:10256800CDF80C903022039B4B4508D3039B0E9A61
:10257800A3EB08034046136004B0BDE8F087591C7C
:1025880003911A70EFE7F7B50029BABF49422D2326
:102598002B2309290270437021DD0DF107031F4623
:1025A8000A2691FBF6F206FB12143034632903F174
:1025B800FF3503F8014C0ADC303205F8012C023BE8
:1025C800821CBB42144605D3201A03B0F0BD2B462B
:1025D8001146E6E713F8011B02F8011BF1E7302367
:1025E80019448370041DC170EEE700002DE9F04F17
:1025F8008DB00C46DDF8588016461F46054601F09A
:10260800DDF8036806931846FDF7F2FD00230A93E8
:10261800D8F800300790073323F0070303F10802C6
:1026280094F818A0D4F800B0C8F80020D3E9002323
:10263800C4E9122394ED127B8DED047BDDE904835C
:1026480023F000494FF0FF32A84B40464946FEF7B9
:102658002DFA70BB4FF0FF32A44B40464946FEF7B7
:1026680007FA30BB00220023DDE90401FEF7F6F982
:1026780010B12D2384F843309D4A9E4BBAF1470F81
:1026880094BF9046984603232BF0040223612260EE
:102698004FF00009009733460BAA2146284600F060
:1026A800D3F9013040F090804FF0FF300DB0BDE815
:1026B800F08FDDE9042310461946FEF7F7F960B1FB
:1026C80000220023DDE90401FEF7C8F910B12D232B
:1026D80084F84330884A894BD0E763685A1C0AF06B
:1026E800DF093ED106236360002303930AAB4BF452
:1026F8008062CDE901A309AB0093616822600DF106
:1027080023039DED040B2846FFF7E0FEB9F1470FC0
:102718008046099908D1C81C02DB6368994241DDEB
:10272800AAF1020A5FFA8AFABAF1650F20D80139CC
:10273800524604F150000991FFF725FF0A9A131831
:10274800012A8146236102DC2268D20701D50133C0
:1027580023619DF82330002B9CD02D2384F843302F
:1027680098E7B9F1470FBFD1002BBDD10123BAE7D4
:10277800BAF1660F18D1002963680BDD216113B91E
:102788002268D00702D501330B442361A1654FF0BD
:102798000009DEE713B92268D20701D50233F4E74E
:1027A8000123F2E74FF0670A0A9B994205DB236889
:1027B8002161D807EAD54B1CE7E70029D4BFC1F14E
:1027C800020201221344E0E723685A0507D423696B
:1027D800424631462846B84701302BD164E7BAF162
:1027E800650F40F2DC8000220023D4E91201FEF7D5
:1027F8002BF9002833D00123414A31462846B847EF
:1028080001303FF451AFDDE909239A4202DB236826
:10281800D8070FD5DDE9062331462846B8470130E9
:102828003FF442AF4FF0000804F11A090A9B013B3C
:10283800434509DC23689B0700F10181E0680B9B95
:102848009842B8BF184631E701234A463146284620
:10285800B84701303FF428AF08F10108E6E7099BC3
:10286800002B2BDC0123264A31462846B847013085
:102878003FF41AAFDDE90923134302D12368D907CE
:10288800D8D5DDE9062331462846B84701303FF45C
:102898000BAF4FF0000904F11A0A099B5B424B4544
:1028A80001DC0A9B94E70123524631462846B84783
:1028B80001303FF4F9AE09F10109EEE70A9AA36D78
:1028C8009A42A8BF1A46002A914607DD13463146A8
:1028D80042462846B84701303FF4E6AE04F11A03F1
:1028E8004FF0000B29EAE979049315E0FFFFEF7F29
:1028F800403F0008443F0008483F00084C3F00089C
:10290800503F00080123049A31462846B847013051
:102918003FF4CAAE0BF1010BD4F858A0AAEB090397
:102928005B45EFDCDDE909239A421BDB2368DA0704
:1029380018D4DDE9092392451CDBA3EB0A09B9F198
:10294800000F08DD4B4608EB0A0231462846B84717
:1029580001303FF4A9AE4FF0000829EAE97904F103
:102968001A0A14E0DDE9062331462846B847013043
:10297800DFD199E6A3EB0209E1E70123524631468C
:102988002846B84701303FF48FAE08F10108DDE969
:1029980009239B1AA3EB09034345EEDC4AE70A9A8D
:1029A800012A01DCDB0737D5012342463146284698
:1029B800B84701303FF478AEDDE9062331462846B2
:1029C800B84701303FF470AE00220023D4E9120169
:1029D800FEF73AF8D8B90A9B08F10102013B3146E3
:1029E8002846B84701300ED15EE6012352463146EB
:1029F8002846B84701303FF457AE08F101080A9B52
:102A0800013B4345F1DC4B4604F15002E1E64FF04F
:102A1800000804F11A0AF2E701234246DFE701231E
:102A28004A4631462846B84701303FF43DAE08F1E2
:102A38000108E3680B9A9B1A4345F0DCFEE64FF069
:102A4800000804F11909F4E72DE9F04791461F46FB
:102A58008A680B69DDF820809342B8BF1346C9F82D
:102A6800003091F8432006460C4612B10133C9F8EC
:102A780000302368990642BFD9F800300233C9F8FC
:102A88000030256815F0060507D104F1190AE36836
:102A9800D9F800209B1AAB4228DC94F8433022680E
:102AA800003318BF012392062DD404F1430239469E
:102AB8003046C047013020D02368E568D9F80020A7
:102AC80003F00603042B08BFAD1AA36822690CBFE4
:102AD80025EAE57500259342C4BF9B1AED184FF00F
:102AE80000091A344D451AD1002008E00123524646
:102AF80039463046C047013003D14FF0FF30BDE8BA
:102B0800F0870135C3E7E1185A1C302081F84300EB
:102B1800224494F8451082F843100233C5E7012394
:102B2800224639463046C0470130E6D009F101094E
:102B3800D8E72DE9F74F03690C69A34280467FDB8C
:102B4800013C01F11407A00008F114052B180193AA
:102B580057F8243055F8242001339A4207EB00092E
:102B6800B2FBF3F631D34FF0000ABC46AE46D3466B
:102B78005CF8042B93B206FB03A34FEA134A9BB2FB
:102B8800ABEB0303120CDEF800B006FB02A213FA4B
:102B98008BF34FEA124A1FFA82FBDEF80020CBEBD8
:102BA800124202EB23429BB243EA0243E1454FEA59
:102BB800224B4EF8043BDBD22B5833B9019B043B24
:102BC8009D421A4630D3C8F81040404601F021F81B
:102BD800002825DB013628464FF0000C57F8042B57
:102BE800D0F800E093B2ACEB0303120C13FA8EF3A7
:102BF800C2EB1E4202EB23429BB243EA0243B945B1
:102C08004FEA224C40F8043BE8D255F8242005EB63
:102C180084032AB9043B9D421A460BD3C8F81040D6
:102C2800304603B0BDE8F08F1268043B002ACAD1D1
:102C3800013CC5E71268043B002AEFD1013CEAE7F2
:102C48000020EEE7000000002DE9F04F55EC104B96
:102C580099B0476A089183460D921493229ECDE954
:102C6800004547B9102000F0ADFDC0E90177CBF869
:102C780024000760C760DBF82430196859B15A6826
:102C88004A60012393408B60584600F0E5FDDBF86D
:102C9800243000221A602B1EB9BF23F00043019391
:102CA80000233360019CB24BBCBF01223260A343B6
:102CB8001AD1149A42F20F731360009AC4F31303E3
:102CC800134300F05285239B53B9AA4B23E0AA4B28
:102CD80003930833239A1360039819B0BDE8F08F63
:102CE800A44B03930333F5E79DED007B00220023FB
:102CF80051EC170B8DED0E7BFDF7A6FE074660B174
:102D0800149A01231360239B002B00F02B859B4B07
:102D1800239A1360013B0393DEE716AA17A99DEDDA
:102D28000E0B584600F0ECFFC4F30A568046002EFE
:102D38007FD00F9B1597C3F31303DDE90E4543F0CE
:102D48007F5545F44015A6F2FF3600228C4B2046ED
:102D58002946FDF759FA80A3D3E90023FDF70CFCB7
:102D68007FA3D3E90023FDF751FA044630460D4608
:102D7800FDF798FB7CA3D3E90023FDF7FDFB024692
:102D88000B4620462946FDF741FA04460D46FDF755
:102D9800A3FE00228246002320462946FDF75EFE58
:102DA80048B15046FDF77EFB22462B46FDF74CFE08
:102DB80008B90AF1FF3ABAF1160F59D8714B03EB6B
:102DC800CA03D3E90023DDE90E01FDF747FE002819
:102DD80050D00AF1FF3A00231193169B9E1B731ED5
:102DE800079345BFC6F101030693002300234CBF98
:102DF80007930693BAF1000F3EDB079BCDF840A07E
:102E08005344079300230993089B092B00F28F80F2
:102E1800052BC4BF043B0893089BA3F10203CCBF56
:102E280000240124032B00F28D80DFE803F02F3CFF
:102E38003A7EDDE916631E4406F23240202811DD91
:102E4800C0F14000009B844006F2124023FA00F0D3
:102E58002043FDF717FB01230446A1F1F875013E55
:102E6800159372E7009BC0F1200003FA00F0F0E729
:102E78000123B1E71190B0E7069BA3EB0A03069381
:102E8800CAF10003099300231093BDE700230C93B4
:102E98000D9B002B59DC0123049399461A460D9289
:102EA8000CE00123F3E700230C930D9B534403F13B
:102EB800010904934B46012BB8BF0123DBF82450CA
:102EC80000226A60042202F11400984269685DD900
:102ED800584600F08DFCDBF8243028601B6803930B
:102EE800B9F10E0F00F2D780002C00F0D480BAF1AF
:102EF800000F69DD234A0AF00F0302EBC30393EDC9
:102F0800007B4FEA2A14E2068DED0A7B5AD51E4B48
:102F1800DDE90E01D3E90823FDF758FCCDE90001EE
:102F280004F00F040326184D41E00123BCE70124F7
:102F3800002308930C944FF0FF3304939946002222
:102F48001223ACE701230C93F5E70D9B04939946F4
:102F5800B4E700BFAFF3008061436F63A787D23F38
:102F6800B3C8608B288AC63FFB799F501344D33F70
:102F78000000F07F5B3F0008523F0008513F000807
:102F88000000F83F883F0008603F00080131696091
:102F9800520098E7E30708D5DDE90A01D5E90023DF
:102FA800FDF7EAFACDE90A01013664100835002C6C
:102FB800F0D1DDE90A23DDE90001FDF707FCCDE9E1
:102FC80000011AE00226AEE700F09F80CAF1000473
:102FD8009F4BA04D04F00F0203EBC203D3E900237B
:102FE800DDE90E01FDF7C8FACDE90001241100233F
:102FF8000226002C7ED1002BE1D1119B002B00F082
:103008008680DDE900450022934B20462946FDF7DE
:1030180025FD00287BD0B9F1000F78D0049B002B48
:1030280035DD0AF1FF330A93204600228B4B2946EF
:10303800FDF7A2FACDE90001049C01363046FDF700
:1030480031FADDE90023FDF797FA0022844BFDF7FA
:10305800DDF80646A1F15077002C5CD10022814BA7
:10306800DDE90001FDF7D0F832463B46CDE9000125
:10307800FDF712FD002840F08C82324607F100432C
:10308800DDE90001FDF7EAFC002840F08082DDE977
:103098000E34CDE90034179B002BC0F24F81BAF1F2
:1030A8000E0F00F34B816A4B03EBCA0393ED007BD1
:1030B8000D9B002B8DED047B80F2D880B9F1000FB9
:1030C80000F3D48040F062820022664B51EC170B6B
:1030D800FDF752FADDE90023FDF7D4FC4C464E46D5
:1030E800002840F03B82039D312305F8013B0AF19B
:1030F800010A37E2E70705D5D5E90023FDF73CFAD1
:10310800013601236410083573E7022675E7CDF808
:1031180028A04C4692E74E4B03EBC40353E9020147
:10312800039B1C440C9B002B46D002460B460020F8
:103138004D49FDF74BFB32463B46FDF765F8039DCD
:1031480006460F46DDE90001FDF7C6FC1290FDF7C3
:10315800A9F902460B46DDE90001FDF755F8129B77
:10316800303305F8013B32463B46CDE90001FDF717
:1031780075FC002860D1DDE9002300203649FDF701
:1031880043F832463B46FDF769FC002840F0B4801E
:10319800A5423FF47CAF0022304B30463946FDF75C
:1031A800EBF9002206460F462C4BDDE90001FDF73E
:1031B800E3F9CDE90001C5E732463B46FDF7DCF906
:1031C800CDE91201039E2546DDE90001FDF784FCE7
:1031D8000746FDF767F9303702460B46DDE900017F
:1031E800FDF712F806F8017BA642CDE900014FF081
:1031F800000226D11C4BDDE91201FDF707F8024653
:103208000B46DDE90001FDF747FC002874D1DDE934
:10321800122300201449FCF7F7FF02460B46DDE9AC
:103228000001FDF71BFC00283FF431AF15F8013C05
:10323800302B05F1FF3202D0DDF828A04AE0154610
:10324800F4E7064BFDF798F9CDE90001BCE700BFAC
:10325800883F0008603F00080000F03F000024405D
:1032680000001C40000014400000E03FDDE900675A
:10327800039DDDE9042330463946FDF7A7FAFDF73B
:103288002BFC0446FDF70EF9DDE90423FDF774F97C
:1032980002460B463046394604F13006FCF7B4FFC7
:1032A80005F8016B039EAE1BB14502460B4638D1AB
:1032B800FCF7ACFFDDE9042306460F46FDF7ECFBFF
:1032C800C0B9DDE9042330463946FDF7BDFB08B136
:1032D800E1070FD44146584600F0BEFA0023149A7D
:1032E8002B700AF101031360239B002B3FF4F4AC0D
:1032F8001D60F1E4CDF828A015F8012C392A05F154
:10330800FF3308D1039A9A4209D10A9A03990132E4
:103318000A9230220A701A7801321A708CE71D4618
:10332800EAE700229D4BFDF727F900220023064615
:103338000F46FDF789FB00289BD0CBE70C9A002AA3
:1033480000F0CB80089A012A00F3AE80159A002A73
:1033580000F0A68003F23343099C069D069A1A449E
:103368000692079A01211A445846079200F016FB64
:103378000646002D0CDD079B002B09DDAB42069AA3
:10338800A8BF2B46D21A0692079AED1AD31A0793AA
:10339800099BF3B10C9B002B00F0A380002C10DDDF
:1033A80031462246584600F093FB424601460646FF
:1033B800584600F0FCFA41460746584600F04CFAD9
:1033C800B846099B1A1B04D04146584600F080FBBA
:1033D80080460121584600F0E1FA109B002B044674
:1033E80040F381801A460146584600F071FB089B5D
:1033F800012B04467ADD0027236904EB830318694F
:1034080000F07CFAC0F12000079B184410F01F0060
:1034180000F08B80C0F12003042B40F38480C0F1BE
:103428001C00069B03440693079B0344054407932B
:10343800069B002B05DD41461A46584600F096FBD0
:103448008046079B002B05DD21461A46584600F0AA
:103458008DFB0446119B002B69D02146404600F0A5
:10346800D8FB002863DA002341460A22584600F0B8
:103478000AFA0C9B0AF1FF3A8046002B00F07C8187
:10348800002331460A22584600F0FDF9049B002B20
:10349800064600F38B80089B022B40F387804EE0A2
:1034A800169BC3F1360357E7099B09F1FF34A34282
:1034B800BFBF099B0994E21A109BBBBF9B181093CE
:1034C8001C1B0024B9F1000FB5BF069B069DA3EB9A
:1034D80009054B46B8BF002340E7099C069D0C9E92
:1034E80047E7099A70E7089B012B18DC009BB3B9E2
:1034F800019BC3F31303A3B9019B23F000473F0DBE
:103508003F0537B1069B01330693079B01330793A9
:103518000127109B002B7FF46FAF012074E7002771
:10352800F7E7009FF5E783D018461C3079E7B9F133
:10353800000F35DC089B022B32DDCDF81090049B80
:1035480063B921460522584600F09DF90146044614
:10355800404600F05EFB00283FF7C5AD0D9B039D7C
:103568006FEA030A00272146584600F075F9002E35
:103578003FF4B0AE2FB1B74203D03946584600F0F9
:103588006BF93146584600F067F9A3E60024264651
:10359800E4E7DDF828A02646A5E500BF00002440A2
:1035A8000C9BCDF81090002B00F0ED80002D05DD70
:1035B80031462A46584600F0D9FA0646002F56D01A
:1035C8007168584600F014F93269023205469200D3
:1035D80006F10C010C3000F0FDF80122294658468E
:1035E80000F0C4FA039B03F10109DDE90323134446
:1035F8000993009B03F0010337460793064609F138
:10360800FF33214640460093FFF793FA03463033D1
:103618000490394640460A9300F0FBFA3246069079
:103628002146584600F00FFBC2680A9B054602BBBC
:103638000146404600F0EDFA0A9B024629465846E4
:103648000C920A9300F008F9089B0C9A43EA0201CD
:10365800079B0B434D460A9B0DD1392B27D0069A61
:10366800002A01DD049B3133009A13707BE7304652
:10367800B8E70122E2E70699002904DB089801432C
:10368800079801431ED1002AEEDD41460122584623
:10369800069300F06BFA2146804600F0BAFA00283B
:1036A800069B02DCE0D1DA07DED5392BDAD1009AA5
:1036B8003923137015F8013C392B05F1FF3247D037
:1036C8000133D2E7002A03DD392BF0D00133CBE7F1
:1036D800099A09F8013C914521D0414600230A2264
:1036E800584600F0D0F8B74280464FF000034FF03C
:1036F8000A023946584606D100F0C5F8074606467C
:1037080009F101097BE700F0BEF8314607460023BE
:103718000A22584600F0B7F80646F1E70027414666
:1037280001225846009300F021FA2146804600F015
:1037380070FA0028BEDC02D1009BDB07BAD415F86A
:10374800013C302B05F1FF327FF40DAF1546F6E74B
:10375800039B934204D10AF1010A3123039A84E7B7
:103768001546A7E7134BFFF7D6BA239B002B7FF428
:10377800AEAA114BFFF7CFBA049B002B03DC089BC2
:10378800022B3FF7DCAE039D21464046FFF7D1F9F7
:1037980000F1300305F8013B039A0499AA1A9142F3
:1037A800BCDD414600230A22584600F06CF88046EA
:1037B800EAE700BF503F0008523F00080048704742
:1037C80080010020024B0146186800F0F5BA00BFDE
:1037D8002C0000200A44914200F1FF3300D17047C9
:1037E80010B511F8014B03F8014F9142F9D110BD02
:1037F80070B5456A04460E463DB91020FFF7E2FF52
:10380800C0E9015560620560C560656AEB6883B10F
:10381800636ADB6853F82600B8B9012101FA06F596
:103828006A1D9200204600F0B9FA60B1C0E901654E
:103838000EE021220421204600F0B0FA636AE86015
:10384800DB68002BE4D1002070BD026843F8262015
:103858000023C0E90333F7E770B5446A06460D460E
:103868003CB91020FFF7AEFFC0E901447062046064
:10387800C4603DB1736A6A68DB6853F82210296036
:1038880043F8225070BD2DE9F0410D691F460646E8
:103898000C4601F1140C0023DCF8000081B202FB95
:1038A80001710F0C000C02FB007089B2013301EBAF
:1038B80000419D424FEA10474CF8041BECDCD7B19D
:1038C800A368AB4212DC616830460131FFF790FF14
:1038D8002269023204F10C01804692000C30FFF795
:1038E80079FF21463046FFF7B7FF444604EB8503CE
:1038F80001355F6125612046BDE8F081020C1204A4
:103908000346CAB90304102013F07F4F04BF1B02FB
:10391800083013F0704F04BF1B01043013F0404F00
:1039280004BF9B000230002B05DB13F0804F00F131
:10393800010008BF202070470020E5E7036813F066
:10394800070201460BD0DA0724D4980749BF5B0861
:103958009B0801200B605CBF0B600220704798B287
:10396800B0B91B0C102013F0FF0F04BF1B0A08305E
:103978001A0704BF1B0904309A0704BF9B080230CA
:10398800DA0703D45B0800F1010005D00B6070472B
:103998001046E8E7002070472020704710B50C4615
:1039A8000121FFF725FF01224461026110BD2DE9C5
:1039B800F74F90460A69D8F810309A42B8BF0B46BC
:1039C8000C46BCBF444698462769D8F81090A368AF
:1039D800616807EB0906B342B8BF0131FFF708FF7A
:1039E80000F1140505EB860E2B460022734516D30D
:1039F80004F1140308F1140203EB870702EB8903AF
:103A08000093009B019293420CD8002E03DD5EF8D0
:103A1800043D002B59D0066103B0BDE8F08F43F890
:103A2800042BE3E7B2F800A0BAF1000F23D004F1A9
:103A38001409AC464FF0000859F8041BDCF800B034
:103A48008BB21FFA8BFB0AFB03B34FEA114BDCF86E
:103A5800001043444FEA11480AFB0B8101EB134164
:103A68009BB243EA01434F454FEA11484CF8043BE7
:103A7800E2D8CCF80080019BB3F802900432B9F187
:103A8800000F20D02B6804F11408AC464FF0000A50
:103A9800B8F80010BCF802B009FB01B18A449BB227
:103AA80043EA0A434CF8043B58F8043BBCF80010BE
:103AB8001B0C09FB031303EB1A4347454FEA134A50
:103AC800E6D8CCF8003004359BE7013E9DE70000BE
:103AD8002DE9F843154612F0030206460F4607D0B3
:103AE800013A214C002354F82220FFF7CCFE074668
:103AF800AD1035D0746A3CB91020FFF763FEC0E9F9
:103B0800014470620460C460D6F82480D8F8084084
:103B18004CB940F271213046FFF740FF0023C8F846
:103B28000800044603604FF00008EB070AD5394641
:103B380022463046FFF73BFF394681463046FFF7BD
:103B48008BFE4F466D100BD0206838B922462146AF
:103B58003046FFF72CFF2060C0F800800446E4E7F9
:103B68003846BDE8F88300BF504000082DE9F0470B
:103B78000C464FEA621A236949680AEB0309A368ED
:103B88000746164609F10105AB4233DB3846FFF715
:103B98002FFE0023804600F1140100F110021846A0
:103BA80053452ADB20692AEAEA7A04F1140316F05D
:103BB8001F0201EB8A0103EB800C22D0C2F1200E18
:103BC80000201E689640304341F8040B53F8040B5C
:103BD8009C4520FA0EF0F4D8086008B109F10205F6
:103BE800013D3846C8F810502146FFF735FE4046DB
:103BF800BDE8F08701315B00C6E742F8040F0133E6
:103C0800CEE7043953F8042B41F8042F9C45F9D822
:103C1800E6E703690A699B1A30B50CD192001430A3
:103C280014318418114454F8045D51F8042D954258
:103C380003D005D30123184630BDA042F3D3FAE7D9
:103C48004FF0FF33F7E72DE9F0470D4607461146D9
:103C580028461446FFF7DDFF061E08D131463846D0
:103C6800FFF7C6FD0123C0E90436BDE8F087A4BF0D
:103C780023462C4638466168A6BF1D460026012605
:103C8800FFF7B6FD2B69C660266905F1140904F132
:103C9800140202EB860709EB830800F114054FF0C4
:103CA800000E52F804AB59F8044B1EFA8AF1A3B27D
:103CB800C91A230CC3EB1A4303EB214389B24FEA19
:103CC800234EC84541EA0343944645F8043BE8D8E7
:103CD800BC4504D355F8043D83B10661C5E75CF8DB
:103CE800041B1EFA81F31A1402EB11429BB243EA39
:103CF80002434FEA224E45F8043BE9E7013EE9E773
:103D08002DE9F7430E46012159EC108B1546FFF7B4
:103D18006FFDC9F30A540746C9F313032CBB01937B
:103D2800B8F1000326D068460093FFF707FE009914
:103D3800F0B1019AC0F1200302FA03F30B43C24029
:103D48007B610192019BBB61002B14BF0221012101
:103D58003961C4B1A4F2334404443460C0F135007D
:103D68002860384603B0BDE8F08343F48013D6E7F3
:103D78007961E7E701A8FFF7E1FD019B7B6101217C
:103D880039612030E5E707EB8103A0F2324030606B
:103D98001869FFF7B3FDC0EB4110E1E738B502FB46
:103DA80001F4214600F008F8054618B12246002122
:103DB800FEF784FB284638BDF8B5CD1C25F0030571
:103DC80008350C2D38BF0C25002D064601DBA9420D
:103DD80003D90C2333600020F8BD00F069F82149AD
:103DE8000A6814469CB9204F3B6823B921463046DF
:103DF80000F03CF838602946304600F037F8431C9C
:103E080023D10C233360304600F058F8E3E72368E9
:103E18005B1B17D40B2B03D923601C44256004E0DB
:103E28006368A2420CBF0B605360304600F046F84E
:103E380004F10B00231D20F00700C21ACCD01B1A76
:103E4800A350C9E722466468CCE7C41C24F00304E5
:103E5800A042E3D0211A304600F008F80130DDD145
:103E6800CFE700BF800200208402002038B5064C4E
:103E7800002305460846236000F036F8431C02D1AB
:103E8800236803B12B6038BDD802002082B001B985
:103E980001A942B14BB113780B601278101C18BFFE
:103EA800012002B070471046FBE76FF00100F8E709
:103EB800014800F016B800BFE0020020014800F0F9
:103EC80011B800BFE002002049B1FF2A85BF8A234C
:103ED80003600A704FF0FF3098BF01207047084612
:103EE8007047704770470000044A05491368002B63
:103EF80008BF0B4618441060184670478802002017
:103F0800E8020020F8B500BFF8BC08BC9E46704720
:103F1800F8B500BFF8BC08BC9E467047000000001A
:103F28000000000000000000010203040607080961
:103F38000006101600061016494E4600696E660007
:103F48004E414E006E616E003000496E66696E69C2
:103F58007479004E614E00000080E03779C3414318
:103F6800176E05B5B5B89346F5F93FE9034F384DD7
:103F7800321D30F94877825A3CBF737FDD4F157583
:103F8800000000000000F03F000000000000244096
:103F980000000000000059400000000000408F4071
:103FA800000000000088C34000000000006AF840DC
:103FB8000000000080842E4100000000D012634100
:103FC8000000000084D797410000000065CDCD4176
:103FD800000000205FA00242000000E87648374257
:103FE800000000A2941A6D42000040E59C30A242F5
:103FF8000000901EC4BCD64200003426F56B0C436A
:104008000080E03779C3414300A0D8855734764310
:1040180000C84E676DC1AB43003D9160E458E14371
:10402800408CB5781DAF154450EFE2D6E41A4B44E6
:1040380092D54D06CFF08044F64AE1C7022DB5442B
:10404800B49DD9794378EA440500000019000000BE
:104058007D0000004300504F534958002E000020B7
:104068002020202020202020282828282820202020
:1040780020202020202020202020202020202088D0
:104088001010101010101010101010101010100434
:104098000404040404040404041010101010101084
:1040A8004141414141410101010101010101010178
:1040B800010101010101010101011010101010108E
:1040C8004242424242420202020202020202020248
:1040D8000202020202020202020210101010200064
:1040E80000000000000000000000000000000000C8
:1040F80000000000000000000000000000000000B8
:1041080000000000000000000000000000000000A7
:104118000000000000000000000000000000000097
:104128000000000000000000000000000000000087
:104138000000000000000000000000000000000077
:104148000000000000000000000000000000000067
:104158000000000000000000000000000000000057
:08416800F8C9FF7F010000000F
:04417000DD01000865
:04417400B901000885
:104178000024F400010000001000000040000000CE
:104188001000000020000000080000000018024095
:10419800000C0240000C02400028024030000020C1
:1041A8000000000000000000000000000000000007
:1041B80000000000000000000000000000000000F7
:1041C80000000000000000000000000000000000E7
:1041D80000000000000000000000000000000000D7
:1041E80000000000000000000000000000000000C7
:1041F80000000000000000000000000000000000B7
:104208004300000000000000000000000000000063
:104218000000000000000000000000000000000096
:104228004300000000000000000000000000000043
:104238000000000000000000000000000000000076
:104248004300000000000000000000000000000023
:104258000000000000000000000000000000000056
:104268004300000000000000000000000000000003
:104278000000000000000000000000000000000036
:1042880043000000000000000000000000000000E3
:104298000000000000000000000000000000000016
:1042A80043000000000000000000000000000000C3
:1042B80000000000000000000000000000000000F6
:1042C80043000000000000000000000000000000A3
:1042D80000000000000000000000000000000000D6
:1042E800D13E0008953E0008000000006640000826
:1042F8006440000865400008654000086540000803
:1043080065400008654000086540000865400008F1
:104318006540000865400008FFFFFFFFFFFFFFFF43
:10432800FFFFFFFFFFFF0000010041534349490021
:104338000000000000000000000000000000000075
:1043480000000000000000000000415343494900FC
:104358000000000000000000000000000000000055
:104368000000000000000000000000000000000045
:0400000508002429A2
:00000001FF
