:020000040800F2
:1000000000000520993E0008011F0008031F00089A
:10001000051F0008071F0008091F00080000000056
:100020000000000000000000000000000B1F00089E
:100030000D1F0008000000000F1F0008111F00081E
:10004000E93E0008E93E0008E93E0008E93E0008F4
:10005000E93E0008E93E0008E93E0008E93E0008E4
:10006000E93E0008E93E0008E93E0008E93E0008D4
:10007000E93E0008E93E0008E93E0008E93E0008C4
:10008000E93E0008E93E0008E93E0008E93E0008B4
:10009000E93E0008E93E0008E93E0008E93E0008A4
:1000A000E93E0008E93E0008E93E0008E93E000894
:1000B000E93E0008E93E0008E93E0008E93E000884
:1000C000E93E0008E93E0008E93E0008E93E000874
:1000D000E93E0008E93E0008E93E0008E93E000864
:1000E000E93E0008E93E0008E93E0008E93E000854
:1000F000E93E0008E93E0008E93E0008E93E000844
:10010000E93E0008E93E0008E93E0008E93E000833
:10011000E93E0008E93E0008E93E0008E93E000823
:10012000E93E0008E93E0008E93E0008E93E000813
:10013000E93E0008E93E0008E93E0008E93E000803
:10014000E93E0008E93E0008E93E0008E93E0008F3
:10015000E93E0008E93E0008E93E0008E93E0008E3
:10016000E93E0008E93E0008E93E0008E93E0008D3
:10017000E93E0008E93E0008E93E000800000000F2
:10018000E93E0008E93E0008E93E0008E93E0008B3
:10019000E93E0008E93E0008E93E0008E93E0008A3
:1001A000191F0008E93E0008E93E0008E93E000882
:0401B000291F0008FB
:1001B80010B5054C237833B9044B13B10448AFF399
:1001C80000800123237010BD1C02002000000000E5
:1001D8007C59000808B5034B1BB103490348AFF32A
:1001E800008008BD00000000200200207C590008A3
:1001F800034613F8012B002AFBD1181A013870475F
:1002080081F0004102E000BF83F0004330B54FEABF
:1002180041044FEA430594EA050F08BF90EA020F2C
:100228001FBF54EA000C55EA020C7FEA645C7FEABF
:10023800655C00F0E2804FEA5454D4EB5555B8BFE2
:100248006D420CDD2C4480EA020281EA030382EA53
:10025800000083EA010180EA020281EA0303362DE5
:1002680088BF30BD11F0004F4FEA01314FF4801CB8
:100278004CEA113102D0404261EB410113F0004FCA
:100288004FEA03334CEA133302D0524263EB430381
:1002980094EA050F00F0A780A4F10104D5F1200E1F
:1002A8000DDB02FA0EFC22FA05F2801841F100017A
:1002B80003FA0EF2801843FA05F359410EE0A5F14E
:1002C80020050EF1200E012A03FA0EFC28BF4CF07F
:1002D800020C43FA05F3C01851EBE37101F0004535
:1002E80007D54FF0000EDCF1000C7EEB00006EEB42
:1002F8000101B1F5801F1BD3B1F5001F0CD34908CC
:100308005FEA30004FEA3C0C04F101044FEA445222
:1003180012F5800F80F09A80BCF1004F08BF5FEAA9
:10032800500C50F1000041EB045141EA050130BD89
:100338005FEA4C0C404141EB010111F4801FA4F12C
:100348000104E9D191F0000F04BF01460020B1FA81
:1003580081F308BF2033A3F10B03B3F120020CDAB9
:100368000C3208DD02F1140CC2F10C0201FA0CF097
:1003780021FA02F10CE002F11402D8BFC2F1200CFC
:1003880001FA02F120FA0CFCDCBF41EA0C019040B2
:10039800E41AA2BF01EB0451294330BD6FEA0404FB
:1003A8001F3C1CDA0C340EDC04F11404C4F12002E6
:1003B80020FA04F001FA02F340EA030021FA04F3F8
:1003C80045EA030130BDC4F10C04C4F1200220FA4F
:1003D80002F001FA04F340EA0300294630BD21FA8D
:1003E80004F0294630BD94F0000F83F4801306BF53
:1003F80081F480110134013D4EE77FEA645C18BF47
:100408007FEA655C29D094EA050F08BF90EA020FDD
:1004180005D054EA000C04BF1946104630BD91EAD5
:10042800030F1EBF0021002030BD5FEA545C05D1D8
:100438004000494128BF41F0004130BD14F5800417
:100448003CBF01F5801130BD01F0004545F0FE418B
:1004580041F470014FF0000030BD7FEA645C1ABFC0
:10046800194610467FEA655C1CBF0B46024650EAF7
:10047800013406BF52EA033591EA030F41F4002123
:1004880030BD00BF90F0000F04BF0021704730B5A9
:100498004FF4806404F132044FF000054FF000017E
:1004A80050E700BF90F0000F04BF0021704730B53F
:1004B8004FF4806404F1320410F0004548BF404214
:1004C8004FF000013EE700BF42004FEAE2014FEA69
:1004D80031014FEA02701FBF12F07F4393F07F4F44
:1004E80081F06051704732F07F4208BF704793F047
:1004F8007F4F04BF41F40021704730B54FF460745A
:1005080001F0004521F000411CE700BF50EA01025C
:1005180008BF704730B54FF000050AE050EA010205
:1005280008BF704730B511F0004502D5404261EB75
:1005380041014FF4806404F132045FEA915C3FF4B6
:10054800D8AE4FF003025FEADC0C18BF03325FEA53
:10055800DC0C18BF033202EBDC02C2F1200300FA04
:1005680003FC20FA02F001FA03FE40EA0E0021FA29
:1005780002F11444BDE600BF70B54FF0FF0C4CF417
:10058800E06C1CEA11541DBF1CEA135594EA0C0FC9
:1005980095EA0C0F00F0DEF82C4481EA030621EA04
:1005A8004C5123EA4C5350EA013518BF52EA03353F
:1005B80041F4801143F4801338D0A0FB02CE4FF0F1
:1005C8000005E1FB02E506F00042E0FB03E54FF021
:1005D8000006E1FB03569CF0000F18BF4EF0010E19
:1005E800A4F1FF04B6F5007F64F5407404D25FEA15
:1005F8004E0E6D4146EB060642EAC62141EA5551C8
:100608004FEAC52040EA5E504FEACE2EB4F1FD0C09
:1006180088BFBCF5E06F1ED8BEF1004F08BF5FEA87
:10062800500E50F1000041EB045170BD06F0004639
:1006380046EA010140EA020081EA0301B4EB5C04E6
:10064800C2BFD4EB0C0541EA045170BD41F48011DE
:100658004FF0000E013C00F3AB8014F1360FDEBF03
:10066800002001F0004170BDC4F10004203C35DADF
:100678000C341BDC04F11404C4F1200500FA05F362
:1006880020FA04F001FA05F240EA020001F0004203
:1006980021F0004110EBD37021FA04F642EB060179
:1006A8005EEA430E08BF20EAD37070BDC4F10C04A3
:1006B800C4F1200500FA04F320FA05F001FA04F267
:1006C80040EA020001F0004110EBD37041F1000153
:1006D8005EEA430E08BF20EAD37070BDC4F120055E
:1006E80000FA05F24EEA020E20FA04F301FA05F2C6
:1006F80043EA020321FA04F001F0004121FA04F26E
:1007080020EA020000EBD3705EEA430E08BF20EA3D
:10071800D37070BD94F0000F0FD101F00046400077
:1007280041EB010111F4801F08BF013CF7D041EAF9
:10073800060195F0000F18BF704703F000465200FD
:1007480043EB030313F4801F08BF013DF7D043EACE
:100758000603704794EA0C0F0CEA135518BF95EA84
:100768000C0F0CD050EA410618BF52EA4306D1D10B
:1007780081EA030101F000414FF0000070BD50EA2A
:10078800410606BF1046194652EA430619D094EAB4
:100798000C0F02D150EA013613D195EA0C0F05D19E
:1007A80052EA03361CBF104619460AD181EA0301F2
:1007B80001F0004141F0FE4141F470014FF00000AA
:1007C80070BD41F0FE4141F4780170BD70B54FF045
:1007D800FF0C4CF4E06C1CEA11541DBF1CEA1355C5
:1007E80094EA0C0F95EA0C0F00F0A7F8A4EB0504A7
:1007F80081EA030E52EA03354FEA013100F088809E
:100808004FEA03334FF0805545EA131343EA126366
:100818004FEA022245EA111545EA10654FEA00261B
:100828000EF000419D4208BF964244F1FD0404F5D4
:10083800407402D25B084FEA3202B61A65EB030530
:100848005B084FEA32024FF480104FF4002CB6EBED
:10085800020E75EB030E22BFB61A754640EA0C006D
:100868005B084FEA3202B6EB020E75EB030E22BFAD
:10087800B61A754640EA5C005B084FEA3202B6EBEE
:10088800020E75EB030E22BFB61A754640EA9C00AD
:100898005B084FEA3202B6EB020E75EB030E22BF7D
:1008A800B61A754640EADC0055EA060E18D04FEA3B
:1008B800051545EA16754FEA06164FEAC30343EADB
:1008C80052734FEAC2025FEA1C1CC0D111F4801FA8
:1008D8000BD141EA00014FF000004FF0004CB6E7A1
:1008E80011F4801F04BF01430020B4F1FD0C88BF40
:1008F800BCF5E06F3FF6AFAEB5EB030C04BFB6EB4B
:10090800020C5FEA500C50F1000041EB045170BD3D
:100918000EF0004E4EEA113114EB5C04C2BFD4EB6A
:100928000C0541EA045170BD41F480114FF0000EEE
:10093800013C90E645EA060E8DE60CEA135594EA6A
:100948000C0F08BF95EA0C0F3FF43BAF94EA0C0F6D
:100958000AD150EA01347FF434AF95EA0C0F7FF4E2
:1009680025AF104619462CE795EA0C0F06D152EA36
:1009780003353FF4FDAE1046194622E750EA41061A
:1009880018BF52EA43067FF4C5AE50EA41047FF42B
:100998000DAF52EA43057FF4EBAE12E74FF0FF3C90
:1009A80006E000BF4FF0010C02E000BF4FF0010C61
:1009B8004DF804CD4FEA410C7FEA6C5C4FEA430CDA
:1009C80018BF7FEA6C5C1BD001B050EA410C0CBF29
:1009D80052EA430C91EA030F02BF90EA020F00208B
:1009E800704710F1000F91EA030F58BF994208BFF2
:1009F80090422CBFD8176FEAE37040F001007047AF
:100A08004FEA410C7FEA6C5C02D150EA013C07D105
:100A18004FEA430C7FEA6C5CD6D152EA033CD3D050
:100A28005DF8040B704700BF8446104662468C464A
:100A38001946634600E000BF01B5FFF7B7FF00287D
:100A480048BF10F1000F01BD4DF808EDFFF7F4FFA6
:100A58000CBF012000205DF808FB00BF4DF808ED31
:100A6800FFF7EAFF34BF012000205DF808FB00BF54
:100A78004DF808EDFFF7E0FF94BF012000205DF876
:100A880008FB00BF4DF808EDFFF7CEFF94BF01202B
:100A980000205DF808FB00BF4DF808EDFFF7C4FF24
:100AA80034BF012000205DF808FB00BF4FEA410C6D
:100AB8007FEA6C5C02D150EA013C0AD14FEA430C50
:100AC8007FEA6C5C02D152EA033C02D14FF000008D
:100AD80070474FF0010070474FEA410212F50012CB
:100AE80015D211D56FF47873B3EB625212D94FEA6D
:100AF800C12343F0004343EA505311F0004F23FA57
:100B080002F018BF404270474FF00000704750EAAB
:100B1800013005D111F0004008BF6FF00040704768
:100B28004FF00000704700BF53B94AB9002908BF09
:100B380000281CBF4FF0FF314FF0FF3000F074B9B0
:100B4800ADF1080C6DE904CE00F006F8DDF804E01C
:100B5800DDE9022304B070472DE9F047089E0446FA
:100B68008846002B40F085808A42154648D9B2FA5B
:100B780082F24AB1C2F1200701FA02F320FA07F71C
:100B8800954047EA030894404FEA154E230CB8FBFA
:100B9800FEF71FFA85FC0EFB178843EA084307FB9C
:100BA8000CF1994209D9EB1807F1FF3080F0E38086
:100BB800994240F2E080023F2B445B1AA4B2B3FB97
:100BC800FEF00EFB103344EA034400FB0CFCA44582
:100BD80009D92C1900F1FF3380F0CB80A44540F2ED
:100BE800C88002382C4440EA0740A4EB0C040027D4
:100BF8001EB1D4400023C6E900433946BDE8F0875A
:100C0800002A53D0B2FA82F2002A40F0B680491B7B
:100C18004FEA154E1FFA85F80127B1FBFEFC230C9D
:100C28000EFB1C1143EA014308FB0CF1994207D95A
:100C3800EB180CF1FF3002D2994200F2EC808446A6
:100C4800591AA3B2B1FBFEF00EFB101443EA044498
:100C580008FB00F8A04507D92C1900F1FF3302D290
:100C6800A04500F2DC801846A4EB080440EA0C40DA
:100C7800BEE78B4208D9002E78D00027C6E90001CC
:100C880038463946BDE8F087B3FA83F77FB98B4217
:100C980002D3824200F2BD80841A61EB0303012073
:100CA8009846002EA9D0C6E90048A6E7FFDEC7F19E
:100CB8002005BB4022FA05FC4CEA030C01FA07F4B4
:100CC80020FA05F821FA05F34FEA1C4E48EA040415
:100CD800B3FBFEF9210C0EFB19331FFA8CF841EA1D
:100CE800034309FB08FA9A4502FA07F200FA07F1EA
:100CF8000BD91CEB030309F1FF3080F088809A457B
:100D080040F28580A9F102096344A3EB0A03A4B267
:100D1800B3FBFEF00EFB103344EA034400FB08F873
:100D2800A04508D91CEB040400F1FF336BD2A045A1
:100D380069D90238644440EA0940A4EB0804A0FBDE
:100D480002894C45C6464B4654D351D0002E69D033
:100D5800B1EB0E0264EB030404FA05F522FA07F37B
:100D6800FC401D43C6E90054002746E73746304695
:100D780043E7184637E707461FE7C2F1200320FA82
:100D880003F7954001FA02F021FA03F34FEA154EF2
:100D98003843010CB3FBFEF71FFA85F80EFB173337
:100DA80041EA034107FB08F38B4204FA02F407D92E
:100DB800691807F1FF3C28D28B4226D9023F294403
:100DC800CB1A81B2B3FBFEF00EFB103341EA0341AC
:100DD80000FB08F38B4207D9691800F1FF3C10D2D9
:100DE8008B420ED902382944C91A40EA074714E74A
:100DF8004145ABD2B8EB020E69EB0C020138134641
:100E0800A4E76046F0E7184695E76746D8E78146C5
:100E18007BE7384645E7ACF1020C2B4410E7023873
:100E28002C4421E73746E8E6704700BF2DE9F04338
:100E380083B081464FF00008CDF80480204C01268D
:100E4800266010276760A660C4F80C801D4D4FF619
:100E5800FF722146284602F060FB304602F0EEFFA2
:100E6800022323606760A660C4F80C804FF6FF7207
:100E78002146284602F051FB0323236067600823BC
:100E8800A360C4F80C804FF6FF722146284602F092
:100E980044FB4FF40C730193042323606760A6603E
:100EA800019BE3604FF6FF722146284602F035FBAE
:100EB8004946284602F04EFB03B0BDE8F08300BF68
:100EC80038020020C4020020002800F0C28070B55B
:100ED8008EB00646002500955E4B9A6B42F00102E3
:100EE8009A639A6B02F001020092009A01951A6BBC
:100EF80042F480021A631A6B02F480020192019A8A
:100F080002951A6B42F004021A631A6B02F004028B
:100F18000292029A03951A6B42F008021A631A6B3E
:100F280002F008020392039A04951A6B42F0100229
:100F38001A631A6B02F010020492049A05951A6B50
:100F480042F020021A631A6B02F020020592059AF9
:100F580006951A6B42F040021A631A6B02F04002BF
:100F68000692069A07951A6B42F080021A631A6B6A
:100F780002F080020792079A08951A6B42F4807271
:100F88001A631B6B03F480730893089B02220A926E
:100F980001230B930C920C220D92099309A92E4858
:100FA80001F0DCF94CF20373099309A92B4801F00D
:100FB800D5F94FF68373099309A9294801F0CEF9A9
:100FC8004FF63F03099309A9264801F0C7F948F2EB
:100FD8003313099309A9244801F0C0F94FF60C739B
:100FE800099309A9214801F0B9F940F2FF6309936F
:100FF80009A91F4801F0B2F91E4C65608023A3605F
:101008004FF40073E3604FF4806323614FF480531F
:1010180063614FF48043A361E5614FF400332362B9
:1010280065620323A362E5622563134B236034637F
:10103800A663204601F054FD204601F0EBFC2A4649
:101048000521382001F026FC382001F057FC0EB0AD
:1010580070BD70470038024000080240000C024092
:10106800001002400014024000180240001C024018
:1010780000200240640200201064024038B51B4C76
:101088001B4B23601B4D02232B6007216960042240
:10109800AA60E9602B616B61AB6100216160A160AE
:1010A800E26020232361402363614FF4C073A3618E
:1010B800E1614FF4006323624FF480536362A162DD
:1010C8002046FFF701FF2946204602F006FA48B1FC
:1010D800094B01221A7040F26950FFF7A7FE064B30
:1010E800187838BD044B00221A70F4E7C4020020B7
:1010F800400100A04802002000000020F0B583B0A5
:1011080004460D4616461F4611484FF440334360C7
:1011180000238360089BC3600E4B036001F05BFAF9
:1011280008B103B0F0BD2146094801F03DFB002895
:10113800F7D1009733462A460999054801F078FA0D
:101148000028EED10A21024801F08EFAE9E700BF33
:10115800E804002000B0024070B586B00026009672
:10116800134B1A6B42F080021A631B6B03F0800367
:101178000093009B80250195112302930396032376
:1011880004930C4C01A9204601F0E8F832462946A0
:10119800204601F0D3F9142002F050FE012229461E
:1011A800204601F0CBF90A2002F048FE06B070BDD7
:1011B80000380240001C0240014B1868704700BF0D
:1011C80014000020014B1868704700BF1800002069
:1011D80070B58EB005460E4600240194FFF7ECFF6B
:1011E80002900394FFF7EEFF049005940A96FF23FC
:1011F800069307948DF834408DF835408DF83640C5
:101208004FF4C063089307230993FFF7D5FF0B90AA
:10121800FFF7D8FF0C902A4601A90A4801F06FF899
:10122800094A680041198B0013444FF0FF31596097
:1012380006499960284483004FF07F41D1500EB091
:1012480070BD00BF24040020FC0200200C00002018
:10125800014B1860704700BFF8020020034B1B6861
:1012680003EB43039A00024B98507047F8020020A2
:10127800FC020020044B1B6803EB43039A00034B5A
:1012880013445860704700BFF8020020FC02002099
:10129800044B1B6803EB43039A00034B1344986009
:1012A800704700BFF8020020FC020020044B1B68B6
:1012B80003EB43039A00034B13449868704700BF3D
:1012C800F8020020FC0200202DE9F04782B0814698
:1012D8000D4616469846124F124C236803EB4303FB
:1012E8009A00B858FFF7BAFF24680F4A342303FB63
:1012F8000423D3F85CA0FFF75FFF00FB059104EB24
:1013080044029300FB580193801B009043463246E9
:101318000AEB81012046FFF7F1FE02B0BDE8F08735
:10132800FC020020F80200202404002000B583B04D
:1013380001280BD90B5C0191009303463922002147
:10134800074801F019FF03B05DF804FB4B780093E0
:101358000B7815220021024801F0E2FEF3E700BFF6
:10136800CC04002010B584B000240194274B5A6C9B
:1013780042F080625A645A6C02F080620192019ACB
:101388005A6A42F080625A625A6A22F080625A624D
:1013980002941A6B42F400021A631A6B02F40002F8
:1013A8000292029A1A6942F400021A611A6922F436
:1013B80000021A6103945A6C42F000625A645A6C33
:1013C80002F000620392039A5A6A42F000625A627B
:1013D8005A6A22F000625A6222460321582001F01C
:1013E80059FA582001F08AFA224603215A2001F0BE
:1013F80051FA5A2001F082FA224603215C2001F0BA
:1014080049FA5C2001F07AFA04B010BD00380240B5
:10141800F8B507460C461646064B1B68064A3421A3
:1014280001FB0323DD6DFFF7C7FE00FB047045F8E1
:101438002060F8BDF8020020240400202DE9F04FB8
:1014480083B081460E460092344B1B6803EB43037E
:101458009A00334B13449B68DA8801929D8805F102
:10146800070B4FEAEB0B4FEACB085FFA88F8EBB2B1
:10147800A8EB03085FFA88F84FF0000A34E0009AF6
:10148800D75C002414E00099CB5C577847EA03271F
:10149800F7E7224B1B6803EB43039A00204B1344E6
:1014A80009EB04005A68314680B2FFF7B1FF0134F6
:1014B800A54215D92B1B4344013B012202FA03F331
:1014C8003B42E6D0154B1B6803EB43039A0009EB3C
:1014D8000400134B9A58314680B2FFF799FFE6E7AC
:1014E8000136B6B20AF1010A019B534512D90AFB2B
:1014F8000BF3009A1A44BBF1010FC0D0BBF1020FE5
:10150800C1D00099CB5C57783F0247EA03479378EC
:101518001F43B6E703B0BDE8F08F00BFF802002014
:10152800FC02002038B50B4B1B6803EB43039C00FF
:10153800094B23449B681C68A2F12005DA8802FB4A
:1015480005F29B880733DB1003FB0242FFF776FFA7
:1015580038BD00BFF8020020FC0200202DE9F04150
:101568000546884616461F461346002413F8012BE5
:101578000AB10134FAE7FFF71FFE294B1B6803EB9A
:1015880043039A00274B13449B689A88B0FBF2F0F8
:10159800012F06D0022F0CD02BB2002B3DDD0024EA
:1015A80021E0041B04FB02F3C3F34F031D44ADB257
:1015B800F2E7031B13FB02F39BB25D1BADB2EBE733
:1015C8003A4641462846FFF7ADFF154B1B6803EB2B
:1015D80043039A00134B13449B689B881D44ADB288
:1015E80001360134A4B23778FFF7E6FD0C4B1B68CF
:1015F80003EB43039A000B4B13449B689B8803FB44
:10160800140080B2984234BF00200120002F08BF88
:1016180000200028D4D1BDE8F0810125BFE700BF34
:10162800F8020020FC02002038B505460C46FFF7FA
:101638003DFEC18811FB05F10323224689B2002033
:10164800FFF78CFF38BD00002DE9F84F8346894627
:10165800D44C21460020FFF769FED3490320FFF749
:1016680065FED24D29460020FFF760FED0490220D2
:10167800FFF75CFE29460020FFF758FECD49002001
:10168800FFF754FE0A2002F0FFFBCB490020FFF7CA
:101698004DFECA490020FFF749FE0A2002F0F4FB7C
:1016A800C7490020FFF742FEC6490020FFF73EFE6B
:1016B800C5490020FFF73AFEDFF8048441460020C0
:1016C800FFF734FEC1490020FFF730FEC049002073
:1016D800FFF72CFE21460020FFF728FEBD49002019
:1016E800FFF724FEBC4E31460020FFF71FFEBB4922
:1016F8000020FFF71BFEBA4F39460020FFF716FE01
:10170800B8490020FFF712FEB7490020FFF70EFE88
:10171800B6490020FFF70AFEB5490020FFF706FE8C
:1017280041460020FFF702FE21460020FFF7FEFD9C
:10173800B0490220FFF7FAFDAF490020FFF7F6FD98
:10174800AE490020FFF7F2FDAD490020FFF7EEFD9E
:10175800AC490020FFF7EAFDAB490020FFF7E6FDA2
:10176800AA490020FFF7E2FD31460020FFF7DEFD21
:10177800A7490020FFF7DAFD39460020FFF7D6FD1C
:10178800A4490020FFF7D2FDA3490020FFF7CEFDB2
:10179800A2490220FFF7CAFD29460020FFF7C6FD2F
:1017A8009F490620FFF7C2FDDFF818A35146002025
:1017B800FFF7BCFD9B490E20FFF7B8FD9A490020B2
:1017C800FFF7B4FD99490E20FFF7B0FDDFF8F88266
:1017D80041460020FFF7AAFD95490A20FFF7A6FD1C
:1017E800944F39460020FFF7A1FD93490020FFF7E9
:1017F8009DFD29460020FFF799FD90490A20FFF733
:1018080095FD8F490020FFF791FD8E490F20FFF7C6
:101818008DFD51460020FFF789FD8B490F20FFF70A
:1018280085FD81490020FFF781FD88490A20FFF7DF
:101838007DFD41460020FFF779FD85490F20FFF720
:1018480075FD39460020FFF771FD82490F20FFF72B
:101858006DFD81490020FFF769FD80490A20FFF7E7
:1018680065FD7F490020FFF761FD7E490A20FFF7EB
:101878005DFD29460020FFF759FD7B490A20FFF747
:1018880055FD6F490020FFF751FD78490F20FFF7FC
:101898004DFD51460020FFF749FD75490F20FFF720
:1018A80045FD61490020FFF741FD72490A20FFF715
:1018B8003DFD41460020FFF739FD6F490F20FFF736
:1018C80035FD39460020FFF731FD6C490F20FFF741
:1018D8002DFD31460020FFF729FD69490020FFF75B
:1018E80025FD68490020FFF721FD67490020FFF723
:1018F8001DFD66490020FFF719FD65490020FFF727
:1019080015FD21460020FFF711FD62490320FFF76E
:101918000DFD21460020FFF709FD21460020FFF7B5
:1019280005FD5D491020FFF701FD21460020FFF766
:10193800FDFC5A491020FFF7F9FC59490020FFF730
:10194800F5FC782002F0A0FABBF1000F00F0BE8091
:10195800BBF1020F03D153490020FFF7E7FCB9F1AF
:10196800010F00F0B88050490020FFF7DFFC4F4915
:101978000020FFF7DBFC4E490020FFF7D7FC4D495C
:101988000020FFF7D3FC4C490020FFF7CFFC0549A6
:101998000020FFF7CBFC49490020FFF7C7FC0020D7
:1019A800BDE8F88F30800008FC8000085C800008E3
:1019B8008881000888800008B4800008E08000085A
:1019C800EC800008F0800008F480000834800008EB
:1019D800388000083C8000084080000844800008E7
:1019E800488000084C800008508000085480000897
:1019F800588000081482000860800008648000088D
:101A0800688000086C8000087080000874800008F6
:101A1800788000087C800008808000081882000810
:101A28001C820008248200088C8000083482000888
:101A38000081000894800008D08000080C8100080C
:101A4800988000081881000828810008388100085B
:101A580044810008548100089C80000864810008C3
:101A6800A0800008708100087C8100088C81000833
:101A78009C810008AC810008B8810008C881000872
:101A8800D4800008D8800008DC800008E4800008C2
:101A9800E8800008D8810008EC810008008200086E
:101AA800A4800008A8800008B8800008BC8000084E
:101AB800C0800008C4800008C8800008CC800008E6
:101AC800F8800008848000089080000808490020F9
:101AD800FFF72CFC43E707490020FFF727FC0649DE
:101AE8000420FFF723FC05490420FFF71FFC3AE711
:101AF800AC800008B0800008DC810008E4810008A0
:101B080000B595B000210091234B1A6C42F0805229
:101B18001A641B6C03F080530093009B01911F4BC8
:101B28001A6842F440421A601B6803F44043019368
:101B3800019B012302934FF48033039302230893FC
:101B48004FF48002099208220A924FF4B4720B9261
:101B58000C9307230D9306230E9302A801F050FF60
:101B680000B1FEE701F078FC00B1FEE70F230F9308
:101B780002231093002311934FF4A05312934FF4B0
:101B88008053139305210FA801F0B8FB00B1FEE7BD
:101B980015B05DF804FB00BF00380240007000403B
:101BA80000B9704708B5022002F05CF9FEE70000B2
:101BB80010B51648FFF76CFB154C2046FFF74EFB97
:101BC80070234FF4487200210846FFF77DFB4FF061
:101BD800FF30FFF743FB4FF4B8734FF4487270219E
:101BE8000020FFF771FB2046FFF744FB094901205D
:101BF800FFF71AFD0848FFF74BFB08490420FFF7D9
:101C080013FD07490520FFF70FFD10BD0C0000204C
:101C1800FF0000FF4C8200080400002070820008CA
:101C2800B882000870B582B00646BDF818504FF467
:101C3800487000FB032201EB820415480021416033
:101C48008160C5F54873C36001610163FF23436385
:101C5800C16281620F4B036000F0BDFC08B102B0A5
:101C680070BD01210A4800F09FFD0028F7D1BDF89A
:101C78001C3000932B4622463146054800F0D8FC1C
:101C88000028ECD16421024800F0EEFCE7E700BF31
:101C9800D803002000B00240044B1B68002B03DB74
:101CA800024B4FF0FF321A60704700BF1C00002043
:101CB80010B5134C204600F0A6FA01236361A36116
:101CC8000223E36123624FF4F173A36240F22233EB
:101CD800636240F2E313236340F22333E362002399
:101CE80084F8343084F8353084F836306360A36083
:101CF800E3602361034B2360204600F009FA10BD1E
:101D080024040020006801402DE9F041FFF724FA7F
:101D1800FFF728FB42480823036040F2A113036140
:101D28000524C4610025856201F0DEFC3D4E3E4B72
:101D38003360304600F0CDFF3C497D230B60022321
:101D48004B608D600127F7604FF00408C6F80880E3
:101D5800304600F0FBFE36490D604D618D61CD6166
:101D68004C604FF448738B60CD600D610D624D621D
:101D78008F62304601F07DF82E4C4FF4807323605B
:101D88004FF4007363604FF48063A3604FF4006303
:101D9800E3604FF4805323614FF4005363614FF4C1
:101DA8008043A3614FF48033E3614FF4003323622F
:101DB8004FF4802363624FF40023A3622146304628
:101DC80001F0E0F81C4923230B604B608B60CB606B
:101DD8000D610A234B61304601F025F9FFF768FFD2
:101DE800304601F064F939467720FFF72DFC25606D
:101DF8006560A560E56025616561A561E5612562AD
:101E08006562A5622146304601F0BCF8414630467D
:101E180001F0F2F8304601F071F92846BDE8F0818A
:101E280078030020CC040020006C0140CC03002083
:101E38001403002044030020B403002030B583B00D
:101E480001F0D0FFFFF75CFEFFF718F9FFF75CFF22
:101E5800003018BF0120FFF7A3FE4FF040410020DB
:101E6800FFF7B6F90020FFF7F3F9FFF7A1FE1E4BC5
:101E78001868421C1A60F02201924FF4A073009374
:101E8800A0234FF04041194C54F82000FFF7CAFE38
:101E9800174B00221A60174801F030F909E0144B7B
:101EA80000221A60134801F029F94FF4FA6001F092
:101EB800C5FF0F4B1B68002BF7DA0B4C2068431C3F
:101EC8002360F02201924FF4A0730093A0234FF0F7
:101ED8004041064D55F82000FFF7A4FE2368012B6A
:101EE800DDD900222260DAE740030020448200089E
:101EF8001C000020CC0400207047FEE7FEE7FEE748
:101F0800FEE770477047704708B501F085FF08BDC8
:101F180008B5024800F086F908BD00BF2404002077
:101F280008B5024800F026FF08BD00BFCC04002019
:101F38000F49D1F8883043F47003C1F888300D4B4D
:101F48001A6842F001021A60002098601A6822F0AC
:101F5800847222F480321A60074A5A601A6822F49E
:101F680080221A60D8604FF000638B60704700BF12
:101F780000ED00E00038024010300024F0B44D6855
:101F88000468E368C3F30B431D44D2011444D4F836
:101F9800883003F47043C4F888300B680468E66836
:101FA800C6F30B4633440133144443EA0543C4F8EB
:101FB8008830CD680468E368C3F30A031D441444F9
:101FC800D4F88C3003F47043C4F88C308B68046800
:101FD800E668C6F30A0633440133144443EA05436A
:101FE800C4F88C3003681344D3F8944024F00704F1
:101FF800C3F89440036813440C69C3F8944091F8FB
:1020080031C091F832708E6905681544D5F89C3056
:102018000024C5F89C4091F8303043EA0C2343EA89
:1020280007430568154443EA0663C5F89C3003680E
:102038001344D3F8985025F0FF05C3F89850036867
:1020480013444D69C3F8985003681344D3F8A0505B
:1020580025F4E06525F00705C3F8A050CD690E6AA0
:10206800036813443543C3F8A05003681344D3F8F6
:10207800AC50C3F8AC40036813444C6AC3F8AC4096
:102088000B696BB1012B3CD0042B3CD0022B08D040
:10209800032B3AD0072B01D0012302E0022300E0F2
:1020A800042304681444D4F8B05005F0E025C4F8BB
:1020B800B0508C6A03FB04F54C680E68A41B03FB44
:1020C80004F303330468144443EA0543C4F8B03006
:1020D80003681344D3F8B44024F4FF6424F00704DD
:1020E800C3F8B44003681344C96AC3F8B41003685A
:1020F8001A44D2F8843043F00103C2F88430F0BCAB
:1021080070470323CDE70223CBE70223C9E77047D3
:10211800002872D038B5044690F8A130002B67D05B
:10212800022384F8A1302268936923F070439361F5
:1021380021688A696368A0680343E06803432069EB
:10214800034313438B6121688A682D4B1A408A60C8
:10215800656920688268A16941EA05410A4382608D
:102168002168CA681A40CA60E5692068C268216A9D
:1021780041EA05410A43C26021680A691A400A61B6
:10218800656A20680269A16A41EA05410A43026159
:1021980021684A6913404B61E06A21684B69226BE8
:1021A80042EA004213434B6194F8350094F8363004
:1021B8001B042168CA6A02F07F42CA622168CA6A9F
:1021C80043EA002394F8340003431343CB622268A4
:1021D800536B43F0060353632268936943F001038A
:1021E80093610020C4F8A400012384F8A13038BD0D
:1021F80080F8A030FFF78BFF92E70120704700BFFF
:1022080000F800F0704710B50446FFF7FBFF002008
:10221800C4F8A40084F8A10084F8A00010BD704799
:102228007047704770B5044603689D6B5E6B15F088
:10223800040F02D016F0040F12D115F0020F02D0CD
:1022480016F0020F21D115F0010F02D016F0010F80
:1022580032D115F0080F02D016F0080F3DD170BD2D
:102268005A6B22F004025A6303680422DA63D0F836
:10227800A43043F00103C0F8A43080F8A120002363
:1022880080F8A030FFF7CBFFD7E72268536B23F025
:102298000203536323680222DA63D4F8A430134399
:1022A800C4F8A430042384F8A130002384F8A030B3
:1022B8002046FFF7B4FFC6E72268536B23F00103FB
:1022C800536322680123D36384F8A130002384F880
:1022D800A0302046FFF7A4FFBBE72268536B23F02A
:1022E8000803536323680822DA63012384F8A130C2
:1022F800002384F8A0302046FFF793FFAFE790F85B
:10230800A030012B27D02DE9F04194460F46064610
:102318004FF0010880F8A080022380F8A13034240F
:1023280004FB020438340D460FCD0FC40FCD0FC483
:102338000FCD0FC42B682360624639463046FFF73D
:102348001DFE3368C3F8248086F8A180002086F833
:10235800A000BDE8F08102207047000000230F2B89
:1023680000F2E280F0B482B039E0092200E00022F5
:10237800B2403A4302356D4E46F825206C4A15683E
:10238800E24302EA05064F6817F4803F01D044EAA9
:102398000506674D2E606D6802EA05064F6817F45A
:1023A800003F01D044EA0506614D6E60AD6802EA5F
:1023B80005064F6817F4801F01D044EA05065C4DF6
:1023C800AE60ED682A404E6816F4001F01D044EA5A
:1023D8000502574CE26001330F2B00F2A280012264
:1023E8009A400C681440A242F5D14D68022D01D0E4
:1023F800122D10D1DE08083650F826C003F0070564
:10240800AF000F25BD402CEA050C0D69BD4045EA1B
:102418000C0540F8265006685F000325BD40ED43D3
:1024280005EA060C4E6806F00306BE4046EA0C06AE
:1024380006604E6806F1FF3CBCF1010F03D9112E6E
:1024480001D0122E10D1866805EA060CCE68BE406F
:1024580046EA0C068660466826EA02024E68C6F31B
:1024680000169E4016434660C26815408A68BA4006
:102478002A43C2604A6812F0805FACD00022019201
:102488002C4A556C45F480455564526C02F48042E0
:102498000192019A9D08AE1C244A52F8267003F056
:1024A800030296000F22B24027EA0207224A90420E
:1024B8003FF45DAF02F58062904222D002F580625F
:1024C800904220D002F5806290421ED002F58062D0
:1024D80090421CD002F5806290421AD002F58062C8
:1024E800904218D002F58062904216D002F58062C0
:1024F800904214D002F5806290423FF436AF0A222F
:1025080036E7012234E7022232E7032230E70422C9
:102518002EE705222CE706222AE7072228E70822C9
:1025280026E702B0F0BC7047704700BF0038014092
:10253800003C014000380240000002400AB18161BD
:10254800704709048161704770B40668746C04F0C0
:102558004044039D45EA03431C4374640368DA63FB
:102568004368B3F5403F03D00368D96070BC704737
:1025780001F07F4601F47F0301F47F45CAB2846805
:1025880094B1012C0ED0022C11D0032C17D0360F89
:102598001B0D2D0B190241EA051141EA063141EAEA
:1025A800121101E021F07F4103689963DEE7DB0C3B
:1025B800AD0AD90241EA451141EAD201F4E7F60F22
:1025C800DB0CED0A990241EA451141EAC63141EABC
:1025D800D201E9E7704748B310B5044690F839309E
:1025E800FBB1022384F839302268136823F440339E
:1025F80061680B4313602268536B23F00703A168DB
:102608000B4353632268136C23F47F5323F03F0377
:10261800E1680B4313640020E063012384F8393038
:1026280010BD80F83830FFF7D5FFDAE70120704792
:1026380010B582B090F83840012C13D00446012020
:1026480084F83800022084F8390004980090204665
:10265800FFF77AFF2268136843F001031360002034
:1026680002B010BD0220FBE770B582B004460D46EB
:102678000023019303681B6813F0010F2AD1236814
:10268800DA6912F0200F03D15B6A13F0200F7FD0B4
:1026980001F0CEFB064623685A6812F0100F77D176
:1026A8005A680192019A12F0290F4FD1B5F1FF3FF4
:1026B800F1D025B101F0BCFB801BA842EBD9E36B3C
:1026C80043F02003E363032084F83900002384F8EF
:1026D800383066E001F0ACFB064623685A6812F011
:1026E800020FCCD15A680192019A12F0210F13D12E
:1026F800B5F1FF3FF1D025B101F09AFB801BA8424C
:10270800EBD9E36B43F02003E363032084F839003B
:10271800002384F8383044E0019A12F0200F03D0E7
:10272800E26B42F00202E263019A12F0010F03D059
:10273800E26B42F00102E26321229A60042384F8EA
:102748003930002384F8383001202AE0019A12F049
:10275800080F03D0E26B42F00402E263019A12F020
:10276800200F03D0E26B42F00202E263019A12F0FA
:10277800010F03D0E26B42F00102E26329229A6062
:10278800042384F83930002384F83830012008E025
:10279800236812229A60012384F83930002084F8D3
:1027A800380002B070BD000090F83830012B5BD0C3
:1027B80030B4012380F83830022380F8393000EB38
:1027C8000113DB69A3F10902012A21D98A1C12012C
:1027D8008418825843EA0243626843EA026359BB99
:1027E8000468656A214A2A4013436362026800EB61
:1027F80001139C699461DB69093B012B13D90123FF
:1028080080F83930002380F83830184630BC7047DB
:102818008A1C12018418825843EA0243626802F053
:102828007F421343DBE7023100EB01114B6802687A
:1028380023F07F439362E2E70468E5690B4A2A4084
:102848001343E361026800EB01139C691461DB69BF
:10285800093B012BD3D8023100EB01114B68026808
:1028680023F07F431362CAE702207047F0FFFC00A1
:10287800074AD36823F4E0631B041B0C000200F42E
:10288800E060184340F0BF6040F40030D06070470B
:1028980000ED00E030B4174BDB68C3F30223C3F14B
:1028A8000704042C28BF04241D1D062D01D9033B51
:1028B80000E000234FF0FF3505FA04F421EA040193
:1028C800994005FA03F322EA03031943002809DBB8
:1028D8000901C9B200F1604000F5614080F80013B9
:1028E80030BC704700F00F000901C9B2024B1954FF
:1028F800F6E700BF00ED00E014ED00E000F01F0275
:10290800400901239340024A42F82030704700BF33
:1029180000E100E00138B0F1807F0AD2064B586030
:10292800064AF02182F823100020986007221A60D6
:1029380070470120704700BF10E000E000ED00E0A4
:1029480010B40368D9B210390C4AA2FB014212092B
:102958000B4CA25CC2655F2909D923F47F7323F06D
:10296800030304338365806D5DF8044B704723F4DB
:102978007F7323F003038365F5E700BFABAAAAAA18
:10298800E8E20908836A826992B9012B0AD01BB16F
:10299800022B01D000207047C36A13F0807F28D132
:1029A80000207047C36AB3F1C07F24D0002070476D
:1029B800B2F5005F09D0022B25D9032B25D1C36AB4
:1029C80013F0807F23D100207047032B03D8DFE862
:1029D80003F01404140A00207047C36A13F0807FC0
:1029E8000DD100207047C36AB3F1C07F09D0002021
:1029F800704701207047012070470120704701206F
:102A0800704701207047012070470020704701205F
:102A18007047000070B5044601F00AFA002C5BD03C
:102A28000546002384F83430022384F835302268C0
:102A3800136823F00103136023681A6812F0010F6A
:102A48000AD001F0F5F9401B0528F5D92023636564
:102A5800032084F8350070BD1A682048104061686A
:102A6800A2680A43E1680A4321690A4361690A4383
:102A7800A1690A43E1690A43216A0A430243616A78
:102A880004291ED01A602668756925F00705636A4F
:102A98001D43042B07D1A36A1D43E36A1BB12046DB
:102AA800FFF770FF90B975612046FFF749FFE26DA7
:102AB8003F239340836000206065012384F835300C
:102AC800C9E7E16A206B01430A43DBE740236365FA
:102AD800012084F83500BEE70120BCE73F8010F0F4
:102AE80030B338B5044690F83530DBB2022B21D02C
:102AF8000268136823F001031360036800251D6052
:102B080003685D6003689D600368DD6003681D619C
:102B1800036821225A61FFF713FFE26D3F239340B8
:102B28008360656584F8355084F83450284638BD8C
:102B3800012070470220FAE742EA811242EA0323A1
:102B4800009A43EA0243C36670477047002800F0C2
:102B5800BA8070B582B004460E46437C1BB303238B
:102B68006374002300932268D2F8303443F08073F2
:102B7800C2F830342368D3F8303403F080730093FC
:102B8800009B01F055F905462368D3F80C2412F48C
:102B9800805F0BD101F04CF9401BB0F57A7FF3D977
:102BA800032002B070BDFFF7D0FFD8E7D3F8302478
:102BB80022F45E3222F4FE72C3F830242168D1F880
:102BC800302430687368DB0243EA8003B06843EA64
:102BD80000431343C1F83034002301932268D2F82C
:102BE800303443F00103C2F830342368D3F830346A
:102BF80003F001030193019B01F01AF905462368CC
:102C0800D3F80C2412F4807F07D101F011F9401B8E
:102C1800B0F57A7FF3D90320C3E7D3F8A02042F0B8
:102C28000602C3F8A0202268D2F8943023F00303E8
:102C3800C2F894302268D2F8943061680B4343F0AC
:102C48000103C2F894302268D2F8A43023F00303B9
:102C5800C2F8A4302268D2F8A430E1680B43C2F865
:102C6800A4302268936823F0FF0393602268936876
:102C7800A1680B439360726802B90122134B03FBEE
:102C880002F3B268934031684FF4FA5202FB01F242
:102C9800B3FBF2F32168D1F8182422F03F02C1F8FF
:102CA80018242168D1F818241343C1F8183423686C
:102CB8000020C3F8C4002368C3F8C800A06160619D
:102CC800012363746DE70120704700BF00093D00D0
:102CD800704700284AD030B585B0044603234374B2
:102CE800002500950268D2F8043423F00803C2F8DE
:102CF80004340368D3F8042402F008020092009A0E
:102D080001955A6822F001025A6003685A6802F075
:102D180001020192019AD3F8A02022F00602C3F81A
:102D2800A02002950268D2F8303423F00103C2F8DB
:102D380030340368D3F8302402F001020292029A78
:102D48000395D3F8302422F08072C3F83024036846
:102D5800D3F8303403F080730393039BFFF7B8FF75
:102D6800656165742574284605B030BD012070473B
:102D78007047704710B504460368D3F80C2412F066
:102D8800010F04D0D3F8082412F0010F60D1236892
:102D9800D3F80C2412F0020F04D0D3F8082412F050
:102DA800020F5BD1A369002B51D02168D1F8BC2058
:102DB800D1F8C4301A40D1F8C000D1F8C830034067
:102DC80091B219B1616941F00101616112F4F81F12
:102DD80003D0626942F00202626113F0010F03D06E
:102DE800626942F00402626113F0020F03D0626963
:102DF80042F00802626113F00C0F03D0626942F0DE
:102E08001002626113F0100F03D0626942F02002D1
:102E1800626113F0200F03D0626942F040026261E0
:102E280013F0400F03D0626942F08002626113F030
:102E3800800F03D0626942F48072626113F4F85F14
:102E480003D0636943F40073636163696BB910BDB0
:102E58000122C3F81024FFF78BFF98E70222C3F87A
:102E680010242046FEF718FF9CE72046FFF781FF55
:102E7800EDE7037C012B00F0828030B4012303745A
:102E88000268536B43F0010353630268D2F80034BD
:102E980023F00103C2F800340268D2F8003443F08A
:102EA8000103C2F800340268D36823F00303D36037
:102EB8000268D3680C682343D3600268536923F01F
:102EC8000703536104686269CB698D692B434D69B7
:102ED8002B43134363610268136923F00F031361E3
:102EE800026813694C68234313610268D2F80034FE
:102EF80023F00E03C2F800340268D2F800344C689C
:102F080043EA4403C2F800340268536E1B0C1B04E6
:102F180053660268536E8C68234353660268D2F87E
:102F2800003423F0F003C2F800340468D4F8002415
:102F3800CB680D692B434D6A2B430D6A2B43134312
:102F4800C4F800340268936E23F0010393660268A4
:102F5800936E896A0B4393660268D2F8083443F08B
:102F68000103C2F808340268D2F8083443F00203B7
:102F7800C2F8083400230374184630BC7047022096
:102F880070470000037C012B31D030B40123037457
:102F98000268946E174B234093660468A26E0B6810
:102FA8004D682B438D682B43CD682B430D692B430C
:102FB8004D692B438D692B43CD692B430D6A2B43F8
:102FC8004D6A2B438D6A2B43CD6A2B431343A3666B
:102FD8000268936E23F0020393660268936E096B8E
:102FE8000B43936600230374184630BC70470220D5
:102FF800704700BFFF80F0FE027C012A11D010B498
:10300800012303740468E26A22F01F02E262026884
:10301800D36A0B43D3620023037418465DF8044B4C
:10302800704702207047037C012B3ED030B4012347
:1030380003740B684A68934238BF13460468D4F88F
:10304800982002F0FC22C4F898200468D4F898204C
:1030580043EA03431343C4F898300268D2F89C301B
:1030680003F40043C2F89C300468D4F89C200B6930
:10307800CD6843EA05438D6843EA05631343C4F802
:103088009C300268D2F8A43023F47F43C2F8A430FD
:103098000268D2F8A430496943EA0123C2F8A4308F
:1030A80000230374184630BC704702207047037C25
:1030B800012B21D082B001230374002300930168FF
:1030C8004A6842F001024A600268516801F0010151
:1030D800009100990193D2F8041441F00801C2F854
:1030E80004140268D2F8042402F008020192019A3A
:1030F8000374184602B0704702207047037C012B06
:103108000CD0012303740268D2F8043443F004039A
:10311800C2F804340023037418467047022070472D
:103128002DE9F04383B0047C012C23D099469046C6
:103138000F4605460123037400F07AFE0646286808
:10314800446F14F0010F09D100F072FE801BB0F536
:103158007A7FF4D900232B74032008E00A9B00939C
:103168004B4642463946FFF7E7FC0020287403B077
:10317800BDE8F0830220FAE72DE9F04782B00A9D06
:103188000B9C067C012E4CD09846924689460746F1
:103198000123037400F04CFE06463A68536F13F09F
:1031A800010F09D100F044FE801BB0F57A7FF4D9F5
:1031B80000233B74032031E04646032E28BF032634
:1031C800002304E0E15C0133D80081400D43B342A1
:1031D800F8D31567A8EB0600A11903E03B681E6742
:1031E800801A114468B10246042828BF0422002628
:1031F80034469442F2D20D5DE3009D402E430134E3
:10320800F7E708F10103C3F307220092DBB2524645
:1032180049463868FFF790FC0020387402B0BDE8D2
:10322800F0870220FAE70000314B9B6803F00C039B
:10323800042B58D0082B58D170B52D4B5A6802F082
:103248003F025B6813F4800F2AD0294B5868C0F3FB
:1032580088100546002643011B1A66EB0604A101E7
:1032680041EA93619801C01A61EB0401CB0043EA7B
:103278005073C4001946601946EB01014B0243EA3A
:10328800D0534402204619463346FDF74DFC184BEF
:103298005B68C3F3014301335B00B0FBF3F070BD1F
:1032A800134B5868C0F388100546002643011B1AC3
:1032B80066EB0604A10141EA93619801C01A61EB2B
:1032C8000401CB0043EA5073C4001946601946EB69
:1032D80001018B0243EA9053840220461946334683
:1032E800FDF722FCD3E7034870470348704700BF47
:1032F8000038024000127A000024F400002800F090
:103308009A8070B50446504B1B6803F00F038B423C
:1033180008D2CBB24C4A1370136803F00F038B42E8
:1033280040F08B80236813F0020F17D013F0040FBE
:1033380004D0464A936843F4E0539360236813F03B
:10334800080F04D0414A936843F4604393603F4AAE
:10335800936823F0F003A068034393600D46236845
:1033680013F0010F32D06368012B21D09A1E012A75
:1033780025D9364A126812F0020F60D033498A689C
:1033880022F0030213438B6000F052FD06462F4BD8
:103398009B6803F00C036268B3EB820F16D000F051
:1033A80047FD801B41F288339842F0D9032041E061
:1033B800264A126812F4003FE0D101203AE0234A7D
:1033C800126812F0007FD9D1012033E01E4B1B6830
:1033D80003F00F03AB4207D9EAB21B4B1A701B6804
:1033E80003F00F03AB422CD1236813F0040F06D06F
:1033F800164A936823F4E053E1680B43936023680B
:1034080013F0080F07D0114A936823F46043216929
:1034180043EAC1039360FFF707FF0C4B9B68C3F3B4
:1034280003130B4AD35CD8400A4B18600F2000F0F6
:10343800B3FC002070BD012070470120FAE701208D
:10344800F8E70120F6E700BF003C024000380240E0
:10345800D8E209082000002010B582B000230193AB
:10346800194B1A6C42F080521A641B6C03F080539B
:103478000193019B154B01221A6000F0D9FC044608
:10348800134B5B6813F4803F08D100F0D1FC001B9C
:10349800B0F57A7FF4D9032002B010BD0D4B01229C
:1034A8001A6000F0C5FC0446094B5B6813F4003F42
:1034B80007D100F0BDFC001BB0F57A7FF4D90320DA
:1034C800EAE70020E8E700BF0038024040000E426B
:1034D8000070004044000E427047E0B138B5044621
:1034E8000D4690F82C308BB1022384F82C302146FD
:1034F80051F8040B00F042F862682946206800F091
:1035080079F8012384F82C30002038BD80F82D305C
:10351800FFF7E2FFE8E70120704738B590F82C3054
:10352800DBB2022B14D00D460446022380F82C305F
:10353800006800F0AAF82B68022B04D0012384F855
:103548002C30002038BD052384F82C300020F9E702
:103558000220F7E790F82C30DBB2022B0CD010B524
:103568000446022380F82C30006800F0B6F80123E6
:1035780084F82C30002010BD0220704730B40B684E
:10358800012B1AD0026822F4FF4222F07F024B6816
:103598008C682343CC6823430C6923434C69234339
:1035A8008C692343CC6923430C6A2343496A0B4340
:1035B80013430360002030BC7047026822F4F842CD
:1035C800CB690C6A1C434B6A1C431443426822F4BF
:1035D800FF4222F07F024B688D682B43CD682B4356
:1035E8000D692B434D692B4389690B4313430460D1
:1035F8004360DFE730B4012A21D0826802F07042CC
:103608000B68013B4C68013C43EA04138C68013C9D
:1036180043EA0423CC68013C43EA04330C69013CC7
:1036280043EA04434C69013C43EA0453896901397C
:1036380043EA016313438360002030BC7047846809
:1036480024F4700424F47044CA68551E4B695A1E49
:10365800120542EA05322243C46804F070440B683C
:10366800013B4D68013D43EA05138D68013D43EA7E
:1036780005230D69013D43EA05438969013943EA98
:10368800016323438260C360D6E770B582B0044605
:103698001546002301930B684A6813438A68013A68
:1036A80043EA4213CA6843EA42230193019B036138
:1036B80000F0BEFB0646A36913F0200F0AD0B5F14F
:1036C800FF3FF8D025B100F0B3FB801BA842F2D928
:1036D800032000E0002002B070BD436943EA4101C5
:1036E800416100207047000030B583B0044603688C
:1036F80013F0800F08D0BC4AD2F88C3023F0006356
:10370800416B0B43C2F88C30236813F4807F08D0D8
:10371800B54AD2F88C3023F08053A16B0B43C2F822
:103728008C30236813F0430F1BD1236813F00C0F60
:1037380070D113F0800F03D0636BB3F1006F69D0C1
:10374800236813F0200F40F0E580236813F0100F72
:1037580000F0478194F83020A44B1A60002003B091
:1037680030BDA34B00221A6000F062FB05469E4B59
:103778001B6813F0006F06D000F05AFB401B0228AC
:10378800F5D90320EBE7236813F0010F07D062682F
:10379800A3681B0743EA8213934AC2F8843023685C
:1037A80013F0020F15D0904AD2F884106068E368CD
:1037B8001B0643EA801301F0E0410B43C2F8843052
:1037C800D2F88C3023F01F03216A01390B43C2F869
:1037D8008C30236813F0400F0AD06268E3681B0638
:1037E80043EA8213A26843EA02737F4AC2F884302C
:1037F8007F4B01221A6000F01BFB05467A4B1B68C1
:1038080013F0006F91D100F013FB401B0228F5D98B
:103818000320A4E7774B00221A6000F009FB054655
:10382800714B1B6813F0005F06D000F001FB401BD2
:103838000228F5D9032092E7236813F0040F1BD060
:10384800694AD2F88830D2F88810206903F44033E6
:1038580043EA8013A06943EA006301F0E0410B43A7
:10386800C2F88830D2F88C3023F4F853616A0139F1
:1038780043EA0123C2F88C30236813F0080F19D0EB
:10388800594AD2F88830D2F88810206903F44033B6
:1038980043EA801301F070610B43E16943EA017365
:1038A800C2F88830D2F88C3023F44033A16A0B4335
:1038B800C2F88C30236813F0800F03D0636BB3F128
:1038C800006F12D04B4B01221A6000F0B1FA054686
:1038D800454B1B6813F0005F7FF432AF00F0A8FA85
:1038E800401B0228F4D9032039E73F4AD2F8880060
:1038F800D2F88810256963695B08013B1B0443EA19
:10390800851300F07060034301F0E0410B43C2F8F7
:103918008830D7E700230193334B1A6C42F080526A
:103928001A641B6C03F080530193019B324A13689D
:1039380043F48073136000F07BFA05462E4B1B6836
:1039480013F4807F06D100F073FA401B0228F5D9E2
:10395800032004E7244B1B6F13F4407312D0E26A70
:1039680002F440729A420DD01F4B1A6F22F4407233
:10397800224901200860002008601A671B6F13F0B5
:10398800010F12D1E36A03F44072B2F5407F1DD0F3
:10399800154A936823F4F813936013490B6FE26A8E
:1039A800C2F30B0213430B67CFE600F041FA05465A
:1039B8000D4B1B6F13F0020FE4D100F039FA401BD6
:1039C80041F288339842F3D90320C8E606498A6849
:1039D80022F4F81223F0704323F4407313438B60EE
:1039E800DBE70020BBE600BF00380240E011474299
:1039F800680047427000474200700040400E47424E
:103A080070B582B00446036813F0010F3BD0A74B92
:103A18009B6803F00C03042B2CD0A44B9B6803F089
:103A28000C03082B21D06368B3F5803F4FD0B3F562
:103A3800A02F52D09D4B1A6822F480321A601A685F
:103A480022F480221A606368002B50D000F0F0F94D
:103A58000546964B1B6813F4003F14D100F0E8F9B3
:103A6800401B6428F5D903208CE1904B5B6813F464
:103A7800800FD8D08D4B1B6813F4003F03D06368C8
:103A8800002B00F07A81236813F0020F54D0874B83
:103A98009B6813F00C0F3ED0844B9B6803F00C031B
:103AA800082B33D0E368002B67D0814B01221A60C2
:103AB80000F0BEF905467D4B1B6813F0020F53D189
:103AC80000F0B6F9401B0228F5D903205AE1774ADD
:103AD800136843F480331360B5E7744B1A6842F4F3
:103AE80080221A601A6842F480321A60ABE700F04C
:103AF8009FF905466D4B1B6813F4003FC3D000F0D7
:103B080097F9401B6428F5D903203BE1674B5B68B4
:103B180013F4800FC6D1654B1B6813F0020F03D056
:103B2800E368012B40F02B81604A136823F0F80307
:103B3800216943EAC1031360236813F0080F40D0DA
:103B4800636963B35B4B01221A6000F071F90546A3
:103B5800564B5B6F13F0020F33D100F069F9401B2D
:103B68000228F5D903200DE1504A136823F0F80321
:103B7800216943EAC1031360DEE74D4B00221A6056
:103B880000F056F90546494B1B6813F0020FD3D0D5
:103B980000F04EF9401B0228F5D90320F2E0454B0E
:103BA80000221A6000F044F90546404B5B6F13F0A1
:103BB800020F06D000F03CF9401B0228F5D903207B
:103BC800E0E0236813F0040F79D0384B1B6C13F036
:103BD800805F33D100230193344B1A6C42F080523A
:103BE8001A641B6C03F080530193019B0125324B2F
:103BF8001B6813F4807F23D0A368012B34D0052BD6
:103C080038D02A4B1A6F22F001021A671A6F22F075
:103C180004021A67A368002B36D000F009F906469B
:103C2800224B1B6F13F0020F48D100F001F9801BE3
:103C380041F288339842F3D90320A3E00025D6E760
:103C48001D4A136843F48073136000F0F1F80646C8
:103C5800194B1B6813F4807FCED100F0E9F8801B64
:103C68000228F5D903208DE0104A136F43F00103B1
:103C78001367CFE70D4B1A6F42F004021A671A6FE9
:103C880042F001021A67C5E700F0D2F80646074B72
:103C98001B6F13F0020F11D000F0CAF8801B41F21D
:103CA80088339842F3D903206CE000BF0038024003
:103CB80000004742800E474200700040E5B9A36902
:103CC800002B5ED0314A926802F00C02082A5BD0C1
:103CD800022B17D02E4B00221A6000F0A9F80446D8
:103CE8002A4B1B6813F0007F45D000F0A1F8001B99
:103CF8000228F5D9032045E0244A136C23F08053A9
:103D08001364DCE7224B00221A6000F091F80546A4
:103D18001E4B1B6813F0007F06D000F089F8401B8B
:103D28000228F5D903202DE0E369226A1343626A69
:103D380043EA8213A26A5208013A43EA0243E26A5A
:103D480043EA0263226B43EA0273104A5360104B42
:103D580001221A6000F06CF804460C4B1B6813F043
:103D6800007F06D100F064F8001B0228F5D9032073
:103D780008E0002006E0002004E0012002E0012025
:103D880000E0002002B070BD0120FBE700380240CF
:103D9800600047427047000010B504460E4B187883
:103DA8004FF47A73B3FBF0F30C4A1068B0FBF3F0EE
:103DB800FEF7B0FD68B90F2C01D901200AE00022F6
:103DC80021464FF0FF30FEF765FD054B1C600020D3
:103DD80000E0012010BD00BF2400002020000020CA
:103DE8002800002008B50B4B1A6842F400721A60CC
:103DF8001A6842F480621A601A6842F480721A6083
:103E08000320FEF735FD0F20FFF7C6FFFFF7C2FFBF
:103E1800002008BD003C0240034A1168034B1B7890
:103E28000B441360704700BF2805002024000020C1
:103E3800014B1868704700BF2805002038B50446B4
:103E4800FFF7F6FF0546B4F1FF3F02D0044B1B789D
:103E58001C44FFF7EDFF401BA042FAD338BD00BF5A
:103E680024000020032800D9704708B50022044B1D
:103E780033F82010034B53F82000FEF75FFB08BD12
:103E88002C0000203C00002008B5FFF7D7FF08BD34
:103E9800DFF834D0002103E00C4B5B584350043169
:103EA8000B480C4B42189A42F6D30B4A02E0002307
:103EB80042F8043B094B9A42F9D3FEF739F800F06F
:103EC80011F8FDF7BBFF70470000052028E5090839
:103ED800000000201C0200201C0200203C050020DD
:103EE800FEE7000070B50D4D0D4C641BA4100026B4
:103EF800A64209D10B4D0C4C01F03CFD641BA410EB
:103F08000026A64205D170BD55F8043B98470136F6
:103F1800EEE755F8043B98470136F2E720E5090833
:103F280020E5090820E5090824E5090802440346B4
:103F3800934200D1704703F8011BF9E72DE9FF47C9
:103F480055EC104B002D0E4691461946DDF830A071
:103F58004FF0000203DA05F100431D462D220D9FA4
:103F68000A7027F02007462F04D0452F00D10136CC
:103F7800022100E0032103AB019302AB0093324618
:103F8800534645EC104B00F097FB472F804602D173
:103F980019F0010F22D0462F08EB060911D198F825
:103FA8000030302B0AD10022002320462946FCF796
:103FB8004BFD18B9C6F10106CAF80060DAF80030FE
:103FC80099440022002320462946FCF73DFD08B10C
:103FD800CDF80C903022039B4B4508D3039B0E9AD7
:103FE800A3EB08034046136004B0BDE8F087591CF2
:103FF80003911A70EFE7F7B50029BABF49422D239C
:104008002B2309290270437021DD0DF107031F4698
:104018000A2691FBF6F206FB12143034632903F1E9
:10402800FF3503F8014C0ADC303205F8012C023B5D
:10403800821CBB42144605D3201A03B0F0BD2B46A0
:104048001146E6E713F8011B02F8011BF1E73023DC
:1040580019448370041DC170EEE700002DE9F04F8C
:104068008DB00C46DDF8588016461F46054601F00F
:10407800DDF8036806931846FCF7BAF800230A939C
:10408800D8F800300790073323F0070303F108023C
:1040980094F818A0D4F800B0C8F80020D3E9002399
:1040A800C4E9122394ED127B8DED047BDDE90483D2
:1040B80023F000494FF0FF32A84B40464946FCF731
:1040C800F5FC70BB4FF0FF32A44B40464946FCF765
:1040D800CFFC30BB00220023DDE90401FCF7BEFC65
:1040E80010B12D2384F843309D4A9E4BBAF1470FF7
:1040F80094BF9046984603232BF004022361226064
:104108004FF00009009733460BAA2146284600F0D5
:10411800D3F9013040F090804FF0FF300DB0BDE88A
:10412800F08FDDE9042310461946FCF7BFFC60B1A7
:1041380000220023DDE90401FCF790FC10B12D23D7
:1041480084F84330884A894BD0E763685A1C0AF0E0
:10415800DF093ED106236360002303930AAB4BF4C7
:104168008062CDE901A309AB0093616822600DF17B
:1041780023039DED040B2846FFF7E0FEB9F1470F36
:104188008046099908D1C81C02DB6368994241DD61
:10419800AAF1020A5FFA8AFABAF1650F20D8013942
:1041A800524604F150000991FFF725FF0A9A1318A7
:1041B800012A8146236102DC2268D20701D5013336
:1041C80023619DF82330002B9CD02D2384F84330A5
:1041D80098E7B9F1470FBFD1002BBDD10123BAE74A
:1041E800BAF1660F18D1002963680BDD216113B994
:1041F8002268D00702D501330B442361A1654FF033
:104208000009DEE713B92268D20701D50233F4E7C3
:104218000123F2E74FF0670A0A9B994205DB2368FE
:104228002161D807EAD54B1CE7E70029D4BFC1F1C3
:10423800020201221344E0E723685A0507D42369E0
:10424800424631462846B84701302BD164E7BAF1D7
:10425800650F40F2DC8000220023D4E91201FCF74C
:10426800F3FB002833D00123414A31462846B8479A
:1042780001303FF451AFDDE909239A4202DB23689C
:10428800D8070FD5DDE9062331462846B84701305F
:104298003FF442AF4FF0000804F11A090A9B013BB2
:1042A800434509DC23689B0700F10181E0680B9B0B
:1042B8009842B8BF184631E701234A463146284696
:1042C800B84701303FF428AF08F10108E6E7099B39
:1042D800002B2BDC0123264A31462846B8470130FB
:1042E8003FF41AAFDDE90923134302D12368D90744
:1042F800D8D5DDE9062331462846B84701303FF4D2
:104308000BAF4FF0000904F11A0A099B5B424B45B9
:1043180001DC0A9B94E70123524631462846B847F8
:1043280001303FF4F9AE09F10109EEE70A9AA36DED
:104338009A42A8BF1A46002A914607DD134631461D
:1043480042462846B84701303FF4E6AE04F11A0366
:104358004FF0000B29EAE979049315E0FFFFEF7F9E
:10436800F0E20908F4E20908F8E20908FCE20908A1
:1043780000E309080123049A31462846B84701306A
:104388003FF4CAAE0BF1010BD4F858A0AAEB09030D
:104398005B45EFDCDDE909239A421BDB2368DA077A
:1043A80018D4DDE9092392451CDBA3EB0A09B9F10E
:1043B800000F08DD4B4608EB0A0231462846B8478D
:1043C80001303FF4A9AE4FF0000829EAE97904F179
:1043D8001A0A14E0DDE9062331462846B8470130B9
:1043E800DFD199E6A3EB0209E1E701235246314602
:1043F8002846B84701303FF48FAE08F10108DDE9DF
:1044080009239B1AA3EB09034345EEDC4AE70A9A02
:10441800012A01DCDB0737D501234246314628460D
:10442800B84701303FF478AEDDE906233146284627
:10443800B84701303FF470AE00220023D4E91201DE
:10444800FCF702FBD8B90A9B08F10102013B31468F
:104458002846B84701300ED15EE601235246314660
:104468002846B84701303FF457AE08F101080A9BC7
:10447800013B4345F1DC4B4604F15002E1E64FF0C5
:10448800000804F11A0AF2E701234246DFE7012394
:104498004A4631462846B84701303FF43DAE08F158
:1044A8000108E3680B9A9B1A4345F0DCFEE64FF0DF
:1044B800000804F11909F4E72DE9F04791461F4671
:1044C8008A680B69DDF820809342B8BF1346C9F8A3
:1044D800003091F8432006460C4612B10133C9F862
:1044E80000302368990642BFD9F800300233C9F872
:1044F8000030256815F0060507D104F1190AE368AC
:10450800D9F800209B1AAB4228DC94F84330226883
:10451800003318BF012392062DD404F14302394613
:104528003046C047013020D02368E568D9F800201C
:1045380003F00603042B08BFAD1AA36822690CBF59
:1045480025EAE57500259342C4BF9B1AED184FF084
:1045580000091A344D451AD1002008E001235246BB
:1045680039463046C047013003D14FF0FF30BDE82F
:10457800F0870135C3E7E1185A1C302081F8430061
:10458800224494F8451082F843100233C5E701230A
:10459800224639463046C0470130E6D009F10109C4
:1045A800D8E72DE9F74F03690C69A34280467FDB02
:1045B800013C01F11407A00008F114052B18019320
:1045C80057F8243055F8242001339A4207EB0009A4
:1045D800B2FBF3F631D34FF0000ABC46AE46D346E1
:1045E8005CF8042B93B206FB03A34FEA134A9BB271
:1045F800ABEB0303120CDEF800B006FB02A213FAC1
:104608008BF34FEA124A1FFA82FBDEF80020CBEB4D
:10461800124202EB23429BB243EA0243E1454FEACE
:10462800224B4EF8043BDBD22B5833B9019B043B99
:104638009D421A4630D3C8F81040404601F021F890
:10464800002825DB013628464FF0000C57F8042BCC
:10465800D0F800E093B2ACEB0303120C13FA8EF31C
:10466800C2EB1E4202EB23429BB243EA0243B94526
:104678004FEA224C40F8043BE8D255F8242005EBD9
:1046880084032AB9043B9D421A460BD3C8F810404C
:10469800304603B0BDE8F08F1268043B002ACAD147
:1046A800013CC5E71268043B002AEFD1013CEAE768
:1046B8000020EEE7000000002DE9F04F55EC104B0C
:1046C80099B0476A089183460D921493229ECDE9CA
:1046D800004547B9102000F0ADFDC0E90177CBF8DF
:1046E80024000760C760DBF82430196859B15A689C
:1046F8004A60012393408B60584600F0E5FDDBF8E3
:10470800243000221A602B1EB9BF23F00043019306
:1047180000233360019CB24BBCBF01223260A3432B
:104728001AD1149A42F20F731360009AC4F3130358
:10473800134300F05285239B53B9AA4B23E0AA4B9D
:1047480003930833239A1360039819B0BDE8F08FD8
:10475800A44B03930333F5E79DED007B0022002370
:1047680051EC170B8DED0E7BFCF76EF9074660B127
:10477800149A01231360239B002B00F02B859B4B7D
:10478800239A1360013B0393DEE716AA17A99DED50
:104798000E0B584600F0ECFFC4F30A568046002E74
:1047A8007FD00F9B1597C3F31303DDE90E4543F044
:1047B8007F5545F44015A6F2FF3600228C4B204663
:1047C8002946FBF721FD80A3D3E90023FBF7D4FE9C
:1047D8007FA3D3E90023FBF719FD044630460D46B5
:1047E800FBF760FE7CA3D3E90023FBF7C5FE024676
:1047F8000B4620462946FBF709FD04460D46FCF703
:104808006BF900228246002320462946FCF726F948
:1048180048B15046FBF746FE22462B46FCF714F9F2
:1048280008B90AF1FF3ABAF1160F59D8714B03EBE0
:10483800CA03D3E90023DDE90E01FCF70FF90028CC
:1048480050D00AF1FF3A00231193169B9E1B731E4A
:10485800079345BFC6F101030693002300234CBF0D
:1048680007930693BAF1000F3EDB079BCDF840A0F3
:104878005344079300230993089B092B00F28F8068
:10488800052BC4BF043B0893089BA3F10203CCBFCC
:1048980000240124032B00F28D80DFE803F02F3C75
:1048A8003A7EDDE916631E4406F23240202811DD07
:1048B800C0F14000009B844006F2124023FA00F049
:1048C8002043FBF7DFFD01230446A1F1F875013E03
:1048D800159372E7009BC0F1200003FA00F0F0E79F
:1048E8000123B1E71190B0E7069BA3EB0A030693F7
:1048F800CAF10003099300231093BDE700230C932A
:104908000D9B002B59DC0123049399461A460D92FE
:104918000CE00123F3E700230C930D9B534403F1B0
:10492800010904934B46012BB8BF0123DBF824503F
:1049380000226A60042202F11400984269685DD975
:10494800584600F08DFCDBF8243028601B68039380
:10495800B9F10E0F00F2D780002C00F0D480BAF124
:10496800000F69DD234A0AF00F0302EBC30393ED3E
:10497800007B4FEA2A14E2068DED0A7B5AD51E4BBE
:10498800DDE90E01D3E90823FBF720FFCDE900019B
:1049980004F00F040326184D41E00123BCE701246D
:1049A800002308930C944FF0FF3304939946002298
:1049B8001223ACE701230C93F5E70D9B049399466A
:1049C800B4E700BFAFF3008061436F63A787D23FAE
:1049D800B3C8608B288AC63FFB799F501344D33FE6
:1049E8000000F07F0BE3090802E3090801E3090866
:1049F8000000F83F38E3090810E30908013169604D
:104A0800520098E7E30708D5DDE90A01D5E9002354
:104A1800FBF7B2FDCDE90A01013664100835002C18
:104A2800F0D1DDE90A23DDE90001FBF7CFFECDE98E
:104A380000011AE00226AEE700F09F80CAF10004E8
:104A48009F4BA04D04F00F0203EBC203D3E90023F0
:104A5800DDE90E01FBF790FDCDE9000124110023EB
:104A68000226002C7ED1002BE1D1119B002B00F0F7
:104A78008680DDE900450022934B20462946FBF756
:104A8800EDFF00287BD0B9F1000F78D0049B002BF4
:104A980035DD0AF1FF330A93204600228B4B294665
:104AA800FBF76AFDCDE90001049C01363046FBF7AF
:104AB800F9FCDDE90023FBF75FFD0022844BFBF7DF
:104AC800A5FB0646A1F15077002C5CD10022814B52
:104AD800DDE90001FBF798FB32463B46CDE90001D2
:104AE800FBF7DAFF002840F08C82324607F10043DA
:104AF800DDE90001FBF7B2FF002840F08082DDE924
:104B08000E34CDE90034179B002BC0F24F81BAF167
:104B18000E0F00F34B816A4B03EBCA0393ED007B46
:104B28000D9B002B8DED047B80F2D880B9F1000F2E
:104B380000F3D48040F062820022664B51EC170BE0
:104B4800FBF71AFDDDE90023FBF79CFF4C464E46B8
:104B5800002840F03B82039D312305F8013B0AF110
:104B6800010A37E2E70705D5D5E90023FBF704FD7D
:104B7800013601236410083573E7022675E7CDF87E
:104B880028A04C4692E74E4B03EBC40353E90201BD
:104B9800039B1C440C9B002B46D002460B4600206E
:104BA8004D49FBF713FE32463B46FBF72DFB039DB1
:104BB80006460F46DDE90001FBF78EFF1290FBF772
:104BC80071FC02460B46DDE90001FBF71DFB129B59
:104BD800303305F8013B32463B46CDE90001FBF78F
:104BE8003DFF002860D1DDE9002300203649FBF7AE
:104BF8000BFB32463B46FBF731FF002840F0B48000
:104C0800A5423FF47CAF0022304B30463946FBF7D3
:104C1800B3FC002206460F462C4BDDE90001FBF7EA
:104C2800ABFCCDE90001C5E732463B46FBF7A4FCE7
:104C3800CDE91201039E2546DDE90001FBF74CFF93
:104C48000746FBF72FFC303702460B46DDE900012B
:104C5800FBF7DAFA06F8017BA642CDE900014FF02E
:104C6800000226D11C4BDDE91201FBF7CFFA024600
:104C78000B46DDE90001FBF70FFF002874D1DDE9E1
:104C8800122300201449FBF7BFFA02460B46DDE960
:104C98000001FBF7E3FE00283FF431AF15F8013CB3
:104CA800302B05F1FF3202D0DDF828A04AE0154686
:104CB800F4E7064BFBF760FCCDE90001BCE700BF59
:104CC80038E3090810E309080000F03F0000244019
:104CD80000001C40000014400000E03FDDE90067D0
:104CE800039DDDE9042330463946FBF76FFDFBF7EA
:104CF800F3FE0446FBF7D6FBDDE90423FBF73CFC97
:104D080002460B463046394604F13006FBF77CFA7A
:104D180005F8016B039EAE1BB14502460B4638D120
:104D2800FBF774FADDE9042306460F46FBF7B4FEE9
:104D3800C0B9DDE9042330463946FBF785FE08B1E2
:104D4800E1070FD44146584600F0BEFA0023149AF2
:104D58002B700AF101031360239B002B3FF4F4AC82
:104D68001D60F1E4CDF828A015F8012C392A05F1C9
:104D7800FF3308D1039A9A4209D10A9A039901325A
:104D88000A9230220A701A7801321A708CE71D468E
:104D9800EAE700229D4BFBF7EFFB002200230646C3
:104DA8000F46FBF751FE00289BD0CBE70C9A002A50
:104DB80000F0CB80089A012A00F3AE80159A002AE9
:104DC80000F0A68003F23343099C069D069A1A4414
:104DD8000692079A01211A445846079200F016FBDA
:104DE8000646002D0CDD079B002B09DDAB42069A19
:104DF800A8BF2B46D21A0692079AED1AD31A079320
:104E0800099BF3B10C9B002B00F0A380002C10DD54
:104E180031462246584600F093FB42460146064674
:104E2800584600F0FCFA41460746584600F04CFA4E
:104E3800B846099B1A1B04D04146584600F080FB2F
:104E480080460121584600F0E1FA109B002B0446E9
:104E580040F381801A460146584600F071FB089BD2
:104E6800012B04467ADD0027236904EB83031869C4
:104E780000F07CFAC0F12000079B184410F01F00D6
:104E880000F08B80C0F12003042B40F38480C0F134
:104E98001C00069B03440693079B034405440793A1
:104EA800069B002B05DD41461A46584600F096FB46
:104EB8008046079B002B05DD21461A46584600F020
:104EC8008DFB0446119B002B69D02146404600F01B
:104ED800D8FB002863DA002341460A22584600F02E
:104EE8000AFA0C9B0AF1FF3A8046002B00F07C81FD
:104EF800002331460A22584600F0FDF9049B002B96
:104F0800064600F38B80089B022B40F387804EE017
:104F1800169BC3F1360357E7099B09F1FF34A342F7
:104F2800BFBF099B0994E21A109BBBBF9B18109343
:104F38001C1B0024B9F1000FB5BF069B069DA3EB0F
:104F480009054B46B8BF002340E7099C069D0C9E07
:104F580047E7099A70E7089B012B18DC009BB3B957
:104F6800019BC3F31303A3B9019B23F000473F0D33
:104F78003F0537B1069B01330693079B013307931F
:104F88000127109B002B7FF46FAF012074E70027E7
:104F9800F7E7009FF5E783D018461C3079E7B9F1A9
:104FA800000F35DC089B022B32DDCDF81090049BF6
:104FB80063B921460522584600F09DF9014604468A
:104FC800404600F05EFB00283FF7C5AD0D9B039DF2
:104FD8006FEA030A00272146584600F075F9002EAB
:104FE8003FF4B0AE2FB1B74203D03946584600F06F
:104FF8006BF93146584600F067F9A3E600242646C7
:10500800E4E7DDF828A02646A5E500BF0000244017
:105018000C9BCDF81090002B00F0ED80002D05DDE5
:1050280031462A46584600F0D9FA0646002F56D08F
:105038007168584600F014F9326902320546920048
:1050480006F10C010C3000F0FDF801222946584603
:1050580000F0C4FA039B03F10109DDE903231344BB
:105068000993009B03F0010337460793064609F1AD
:10507800FF33214640460093FFF793FA0346303347
:105088000490394640460A9300F0FBFA32460690EF
:105098002146584600F00FFBC2680A9B054602BB32
:1050A8000146404600F0EDFA0A9B0246294658465A
:1050B8000C920A9300F008F9089B0C9A43EA020143
:1050C800079B0B434D460A9B0DD1392B27D0069AD7
:1050D800002A01DD049B3133009A13707BE73046C8
:1050E800B8E70122E2E70699002904DB08980143A2
:1050F800079801431ED1002AEEDD41460122584699
:10510800069300F06BFA2146804600F0BAFA0028B0
:10511800069B02DCE0D1DA07DED5392BDAD1009A1A
:105128003923137015F8013C392B05F1FF3247D0AC
:105138000133D2E7002A03DD392BF0D00133CBE766
:10514800099A09F8013C914521D0414600230A22D9
:10515800584600F0D0F8B74280464FF000034FF0B1
:105168000A023946584606D100F0C5F807460646F1
:1051780009F101097BE700F0BEF831460746002334
:105188000A22584600F0B7F80646F1E700274146DC
:1051980001225846009300F021FA2146804600F08B
:1051A80070FA0028BEDC02D1009BDB07BAD415F8E0
:1051B800013C302B05F1FF327FF40DAF1546F6E7C1
:1051C800039B934204D10AF1010A3123039A84E72D
:1051D8001546A7E7134BFFF7D6BA239B002B7FF49E
:1051E800AEAA114BFFF7CFBA049B002B03DC089B38
:1051F800022B3FF7DCAE039D21464046FFF7D1F96D
:1052080000F1300305F8013B039A0499AA1A914268
:10521800BCDD414600230A22584600F06CF880465F
:10522800EAE700BF00E3090802E3090800487047FD
:10523800A0010020024B0146186800F0F5BA00BF33
:105248004C0000200A44914200F1FF3300D170471E
:1052580010B511F8014B03F8014F9142F9D110BD77
:1052680070B5456A04460E463DB91020FFF7E2FFC7
:10527800C0E9015560620560C560656AEB6883B185
:10528800636ADB6853F82600B8B9012101FA06F50C
:105298006A1D9200204600F0B9FA60B1C0E90165C4
:1052A8000EE021220421204600F0B0FA636AE8608B
:1052B800DB68002BE4D1002070BD026843F826208B
:1052C8000023C0E90333F7E770B5446A06460D4684
:1052D8003CB91020FFF7AEFFC0E9014470620460DA
:1052E800C4603DB1736A6A68DB6853F822102960AC
:1052F80043F8225070BD2DE9F0410D691F4606465E
:105308000C4601F1140C0023DCF8000081B202FB0A
:1053180001710F0C000C02FB007089B2013301EB24
:1053280000419D424FEA10474CF8041BECDCD7B112
:10533800A368AB4212DC616830460131FFF790FF89
:105348002269023204F10C01804692000C30FFF70A
:1053580079FF21463046FFF7B7FF444604EB850343
:1053680001355F6125612046BDE8F081020C120419
:105378000346CAB90304102013F07F4F04BF1B0271
:10538800083013F0704F04BF1B01043013F0404F76
:1053980004BF9B000230002B05DB13F0804F00F1A7
:1053A800010008BF202070470020E5E7036813F0DC
:1053B800070201460BD0DA0724D4980749BF5B08D7
:1053C8009B0801200B605CBF0B600220704798B2FD
:1053D800B0B91B0C102013F0FF0F04BF1B0A0830D4
:1053E8001A0704BF1B0904309A0704BF9B08023040
:1053F800DA0703D45B0800F1010005D00B607047A1
:105408001046E8E7002070472020704710B50C468A
:105418000121FFF725FF01224461026110BD2DE93A
:10542800F74F90460A69D8F810309A42B8BF0B4631
:105438000C46BCBF444698462769D8F81090A36824
:10544800616807EB0906B342B8BF0131FFF708FFEF
:1054580000F1140505EB860E2B460022734516D382
:1054680004F1140308F1140203EB870702EB890324
:105478000093009B019293420CD8002E03DD5EF846
:10548800043D002B59D0066103B0BDE8F08F43F806
:10549800042BE3E7B2F800A0BAF1000F23D004F11F
:1054A8001409AC464FF0000859F8041BDCF800B0AA
:1054B8008BB21FFA8BFB0AFB03B34FEA114BDCF8E4
:1054C800001043444FEA11480AFB0B8101EB1341DA
:1054D8009BB243EA01434F454FEA11484CF8043B5D
:1054E800E2D8CCF80080019BB3F802900432B9F1FD
:1054F800000F20D02B6804F11408AC464FF0000AC6
:10550800B8F80010BCF802B009FB01B18A449BB29C
:1055180043EA0A434CF8043B58F8043BBCF8001033
:105528001B0C09FB031303EB1A4347454FEA134AC5
:10553800E6D8CCF8003004359BE7013E9DE7000033
:105548002DE9F843154612F0030206460F4607D028
:10555800013A214C002354F82220FFF7CCFE0746DD
:10556800AD1035D0746A3CB91020FFF763FEC0E96E
:10557800014470620460C460D6F82480D8F80840FA
:105588004CB940F271213046FFF740FF0023C8F8BC
:105598000800044603604FF00008EB070AD53946B7
:1055A80022463046FFF73BFF394681463046FFF733
:1055B8008BFE4F466D100BD0206838B92246214625
:1055C8003046FFF72CFF2060C0F800800446E4E76F
:1055D8003846BDE8F88300BF00E409082DE9F04724
:1055E8000C464FEA621A236949680AEB0309A36863
:1055F8000746164609F10105AB4233DB3846FFF78B
:105608002FFE0023804600F1140100F11002184615
:1056180053452ADB20692AEAEA7A04F1140316F0D2
:105628001F0201EB8A0103EB800C22D0C2F1200E8D
:1056380000201E689640304341F8040B53F8040BD1
:105648009C4520FA0EF0F4D8086008B109F102056B
:10565800013D3846C8F810502146FFF735FE404650
:10566800BDE8F08701315B00C6E742F8040F01335B
:10567800CEE7043953F8042B41F8042F9C45F9D898
:10568800E6E703690A699B1A30B50CD19200143019
:1056980014318418114454F8045D51F8042D9542CE
:1056A80003D005D30123184630BDA042F3D3FAE74F
:1056B8004FF0FF33F7E72DE9F0470D46074611464F
:1056C80028461446FFF7DDFF061E08D13146384646
:1056D800FFF7C6FD0123C0E90436BDE8F087A4BF83
:1056E80023462C4638466168A6BF1D46002601267B
:1056F800FFF7B6FD2B69C660266905F1140904F1A8
:10570800140202EB860709EB830800F114054FF039
:10571800000E52F804AB59F8044B1EFA8AF1A3B2F2
:10572800C91A230CC3EB1A4303EB214389B24FEA8E
:10573800234EC84541EA0343944645F8043BE8D85C
:10574800BC4504D355F8043D83B10661C5E75CF850
:10575800041B1EFA81F31A1402EB11429BB243EAAE
:1057680002434FEA224E45F8043BE9E7013EE9E7E8
:105778002DE9F7430E46012159EC108B1546FFF72A
:105788006FFDC9F30A540746C9F313032CBB0193F1
:10579800B8F1000326D068460093FFF707FE00998A
:1057A800F0B1019AC0F1200302FA03F30B43C2409F
:1057B8007B610192019BBB61002B14BF0221012177
:1057C8003961C4B1A4F2334404443460C0F13500F3
:1057D8002860384603B0BDE8F08343F48013D6E769
:1057E8007961E7E701A8FFF7E1FD019B7B610121F2
:1057F80039612030E5E707EB8103A0F232403060E1
:105808001869FFF7B3FDC0EB4110E1E738B502FBBB
:1058180001F4214600F008F8054618B12246002197
:10582800FEF784FB284638BDF8B5CD1C25F00305E6
:1058380008350C2D38BF0C25002D064601DBA94282
:1058480003D90C2333600020F8BD00F069F8214922
:105858000A6814469CB9204F3B6823B92146304654
:1058680000F03CF838602946304600F037F8431C11
:1058780023D10C233360304600F058F8E3E723685F
:105888005B1B17D40B2B03D923601C44256004E051
:105898006368A2420CBF0B605360304600F046F8C4
:1058A80004F10B00231D20F00700C21ACCD01B1AEC
:1058B800A350C9E722466468CCE7C41C24F003045B
:1058C800A042E3D0211A304600F008F80130DDD1BB
:1058D800CFE700BF180400201C04002038B5064C90
:1058E800002305460846236000F036F8431C02D121
:1058F800236803B12B6038BD2C05002082B001B9A4
:1059080001A942B14BB113780B601278101C18BF73
:10591800012002B070471046FBE76FF00100F8E77E
:10592800014800F016B800BF34050020014800F017
:1059380011B800BF3405002049B1FF2A85BF8A236A
:1059480003600A704FF0FF3098BF01207047084687
:105958007047704770470000044A05491368002BD8
:1059680008BF0B46184410601846704720040020F2
:105978003C050020F8B500BFF8BC08BC9E4670473F
:0C598800F8B500BFF8BC08BC9E46704794
:1059980000000000000000000000000000000000FF
:1059A80000000000000000000000000000000000EF
:1059B80000000C000C000C000C000C000C000C008B
:1059C8000C0000000C0000000000000000000000B7
:1059D800000000001DC01DC008800880088000006D
:1059E80000000000000000000000000000000000AF
:1059F80000000D800D800D800D803FC01B003FC052
:105A08001B001B001B001B00000000000000000022
:105A180004001F803180318038001E000F00038091
:105A2800318031803F0004000400000000000000C5
:105A3800000018002400240018C007801E003180D0
:105A48000240024001800000000000000000000049
:105A5800000000000F001800180018000C001D803E
:105A6800370033001D800000000000000000000027
:105A7800000000000700070002000200020000000A
:105A8800000000000000000000000000000000000E
:105A980000000300030006000E000C000C000C00C0
:105AA8000C000E00060003000300000000000000C8
:105AB8000000180018000C0006000600060006008A
:105AC800060006000C001C00180000000000000082
